:020000040800F2
:1000000000900020152A00082D2900083529000835
:1000100000000000000000000000000000000000E0
:100020000000000000000000000000003D29000862
:1000300000000000000000004729000851290008C6
:10004000652A000800000000652A00085F290008F2
:10005000652A0008652A0008652A0008652A000844
:10006000000000006D290008652A0008652A0008C4
:10007000652A0008652A0008652A000800000000BB
:10008000652A0008652A0008652A0008652A000814
:10009000652A0008652A0008652A0008652A000804
:1000A000652A0008652A0008652A0008652A0008F4
:0800B000652A000885290008FB
:1000B80010B5064C2378002B07D1054B002B02D036
:1000C800044800E000BF0123237010BDF8000020A1
:1000D80000000000A48B0008044B10B5002B03D0CF
:1000E8000349044800E000BF10BDC04600000000FE
:1000F800FC000020A48B00080023C25C0133002A06
:10010800FBD1581E7047000003B4714649084000EF
:100118004900095E49008E4403BC70470022430829
:100128008B4274D303098B425FD3030A8B4244D3B7
:10013800030B8B4228D3030C8B420DD3FF220902F9
:1001480012BA030C8B4202D31212090265D0030BB8
:100158008B4219D300E0090AC30B8B4201D3CB03AE
:10016800C01A5241830B8B4201D38B03C01A5241F0
:10017800430B8B4201D34B03C01A5241030B8B42F2
:1001880001D30B03C01A5241C30A8B4201D3CB02DD
:10019800C01A5241830A8B4201D38B02C01A5241C2
:1001A800430A8B4201D34B02C01A5241030A8B42C5
:1001B80001D30B02C01A5241CDD2C3098B4201D3DD
:1001C800CB01C01A524183098B4201D38B01C01A5B
:1001D800524143098B4201D34B01C01A52410309D2
:1001E8008B4201D30B01C01A5241C3088B4201D381
:1001F800CB00C01A524183088B4201D38B00C01A2E
:10020800524143088B4201D34B00C01A5241411A54
:1002180000D20146524110467047FFE701B5002061
:1002280000F0F0F802BDC0460029F7D076E7704725
:1002380003460B437FD4002243088B4274D303093F
:100248008B425FD3030A8B4244D3030B8B4228D3E0
:10025800030C8B420DD3FF22090212BA030C8B4206
:1002680002D31212090265D0030B8B4219D300E0A6
:10027800090AC30B8B4201D3CB03C01A5241830B2B
:100288008B4201D38B03C01A5241430B8B4201D3DB
:100298004B03C01A5241030B8B4201D30B03C01A04
:1002A8005241C30A8B4201D3CB02C01A5241830A7E
:1002B8008B4201D38B02C01A5241430A8B4201D3AD
:1002C8004B02C01A5241030A8B4201D30B02C01AD7
:1002D8005241CDD2C3098B4201D3CB01C01A52413E
:1002E80083098B4201D38B01C01A524143098B42C7
:1002F80001D34B01C01A524103098B4201D30B01B0
:10030800C01A5241C3088B4201D3CB00C01A5241D4
:1003180083088B4201D38B00C01A524143088B4299
:1003280001D34B00C01A5241411A00D20146524132
:10033800104670475DE0CA0F00D04942031000D351
:100348004042534000229C4603098B422DD3030AA6
:100358008B4212D3FC22890112BA030A8B420CD3B6
:10036800890192118B4208D3890192118B4204D3DF
:1003780089013AD0921100E08909C3098B4201D35F
:10038800CB01C01A524183098B4201D38B01C01A99
:10039800524143098B4201D34B01C01A5241030910
:1003A8008B4201D30B01C01A5241C3088B4201D3BF
:1003B800CB00C01A524183088B4201D38B00C01A6C
:1003C8005241D9D243088B4201D34B00C01A524143
:1003D800411A00D20146634652415B10104601D3D0
:1003E8004042002B00D54942704763465B1000D35A
:1003F800404201B5002000F005F802BD0029F8D000
:1004080016E770477047C04690B587B002AF020044
:10041800FB1D1A700F243A19F91D0648642300932E
:10042800012305F08FFF3B191B781800BD4605B066
:1004380090BDC046C402002080B582B000AF002342
:100448007B60012002F0BEFB134B00220121180043
:1004580003F071FF0520FFF7D7FFA520FFF7D4FFB2
:10046800030019000D4B2C229954012002F0AAFB1D
:100478007B6801337B60094B2C229B5C1A000123AB
:100488001340EAD1044B01220121180003F053FF65
:10049800C046BD4602B080BD0004005018010020CF
:1004A80080B500AF084B00220121180003F043FF7C
:1004B8000620FFF7A9FF044B01220121180003F0D1
:1004C8003AFFC046BD4680BD0004005080B500AF6D
:1004D800084B00220121180003F02DFF0420FFF72C
:1004E80093FF044B01220121180003F024FFC046AA
:1004F800BD4680BD0004005090B5C9B000AFF8609B
:10050800B960494B902464001B19DB191A70FFF776
:1005180093FFFFF7C5FF454B1B19DB191800802314
:100528005B001A00002107F0BDFE414B1B19DB19C7
:10053800180003231A00002107F0B4FEFB681B0C07
:10054800DAB23B4B21005B18DB191A70FB681B0AF7
:10055800DAB2374B5B18DB195A70FB68DAB2344BE6
:100568005B18DB199A7000238E225200BA181360A8
:1005780015E0BB6819782D4B902252009B18DA19A8
:100588008E2040003B181B68D3180A1C1A70BB68E1
:100598000133BB603B181B6801333A1813608E2384
:1005A8005B00FB181B68FF2BE3DD224B00220121B7
:1005B800180003F0C0FE0220FFF726FF00238C225C
:1005C8005200BA18136012E0194B902252009B187F
:1005D800DA198C2464003B191B68D3181B7818009F
:1005E800FFF712FF3B191B6801333A1913608C237C
:1005F8005B00FB181B68022BE6DD01235B428022AF
:100608005200182179180C4805F0EAFB094B012221
:100618000121180003F08FFEFFF70EFFFFF756FFCA
:10062800C046BD4649B090BDE7FEFFFFF8FEFFFF9C
:10063800F4FEFFFF00040050C4020020B0B584B0EF
:1006480000AF78603960FFF7F7FE08243B191800FF
:1006580003231A00002107F025FE0B23FB180022B4
:100668001A707B681B0C5AB23B191A707B681B0AFC
:100678005AB23B195A707B685AB23B199A701B4B95
:1006880000220121180003F056FE0B20FFF7BCFEE4
:100698000023FB600CE00823FA18FB68D3181B78CA
:1006A8005BB2DBB21800FFF7AFFEFB680133FB60FB
:1006B800FB68022BEFDDA520FFF7A6FE0B257C19B2
:1006C80001235B42802252003968094805F0E8FCA2
:1006D80003002370054B01220121180003F02BFEB3
:1006E8007B191B781800BD4604B0B0BD000400504B
:1006F800C402002080B582B000AFFFF7D1FEFB1D19
:10070800C7221A700B4B00220121180003F013FEB8
:10071800FB1D1B781800FFF777FE064B012201210D
:10072800180003F008FEFFF787FEC046BD4602B07A
:1007380080BDC0460004005080B582B000AF78602C
:1007480039603B68043B7A68D3181B7819003B680A
:10075800033B7A68D3181B781B020A001A433B68CC
:10076800023B7968CB181B781B041A433B68013B92
:100778007968CB181B781B0613431800BD4602B0D6
:1007880080BD80B582B000AF78607B6802331B788B
:100798001A007B6803331B781B021A437B680433F7
:1007A8001B781B041A437B6805331B781B0613430D
:1007B8001800BD4602B080BD90B587B000AF786024
:1007C80000237B61214B180001F0DAFA7B681B7863
:1007D80001333B617B681800FFF7D3FF03007B619F
:1007E8003B69191F7A697B68180000F047FC031EF3
:1007F80022D1012000F0C6FC0C243B1918221A70E3
:100808003B1966225A703B1913229A7000F0F6FCC5
:1008180003001A003B19DA703B190421180000F094
:1008280019FC3B19DB7819003B19DB781A00084BD7
:10083800180001F0A5FA05E0064B180001F0A0FA2F
:1008480000F0C4FCC046BD4607B090BDD08B000880
:10085800E88B0008FC8B000880B584B000AF786096
:100868001B4B180001F08CFA0023FB607B681B7897
:100878000133BB607B681800FFF783FF0300FB6050
:10088800BB68191FFA687B68180000F0F7FB031EA5
:1008980013D1104B1800FFF72FFC0300DBB2180030
:1008A80000F070FC0B4B1800FFF726FC0200094B08
:1008B8001100180000F0CEFB05E0074B180001F00E
:1008C8005FFA00F083FCC046BD4604B080BDC04658
:1008D8000C8C000808000020248C0008B0B588B0F3
:1008E80000AF78600023FB611A243B1900221A80AC
:1008F8007B681B7801337B617B681800FFF741FF39
:100908000300FB617B69191FFA697B68180000F016
:10091800B5FB031E2FD1022000F034FC25003C1942
:1009280000F072FC030023800C217B1818221A7037
:100938007B1866225A707B1813229A707B191B88C1
:10094800DAB27B18DA707B191B881B0A9BB2DAB201
:100958000C003B191A713B19DB7819003B19DB783D
:100968001A000A4B180001F00BFA3B190521180070
:1009780000F070FB05E0064B180001F001FA00F0EA
:1009880025FCC046BD4608B0B0BDC046348C000842
:10099800FC8B000890B58BB000AF7860474B18000F
:1009A80001F0EEF910243B19454A1A600C23FB1894
:1009B800444A1A607B681B7801337B627A6A7B68D9
:1009C80011001800FFF7B8FE03003B627B6A191F8D
:1009D8003A6A7B68180000F051FB031E64D10120BD
:1009E80000F0D0FB7B6802331B781A007B68033366
:1009F8001B781B021A437B6804331B781B041A43B9
:100A08007B6805331B781B061343FB61FB691800E1
:100A180000F020FC031E3CD13B190421180000F013
:100A280019FB294B180001F0ABF9284BFA699A60B9
:100A3800274B00221A60264B00225A60244B0022C2
:100A48009A60244B180003F039FD234B180001F07D
:100A580027FF224B180001F023FF80239B01204A27
:100A68001900100003F07AFB1E4B180002F082FCFC
:100A78001D4B180002F040FA04F090FA02F010F84A
:100A8800FB6904331B68BB61BB697B617B69984761
:100A980010E0164B180001F073F90C23FB18042121
:100AA800180000F0D7FA05E0114B180001F068F9BA
:100AB80000F08CFBC046BD460BB090BD448C0008CE
:100AC8001866130018661301608C000800ED00E03A
:100AD80010E000E07002002028030020BC03002082
:100AE80000080050500400204C020020748C0008BC
:100AF800FC8B000890B587B000AF7860274B1800D2
:100B080001F03EF97B681B7801337B617A697B6869
:100B180011001800FFF710FE03003B617B69191FE5
:100B28003A697B68180000F0A9FA031E2CD101204D
:100B380000F028FB7B6802331B7819007B680333BD
:100B48001B781A00164B180001F01AF90C243B19EF
:100B580018221A703B1966225A703B1913229A7090
:100B68007B6802331A787B6803331B7819001000FE
:100B780000F086FB03001A003B19DA703B190421C8
:100B8800180000F067FA05E0064B180001F0F8F8C5
:100B980000F01CFBC046BD4607B090BD888C00081D
:100BA800A48C0008D08C0008B0B588B000AF78607D
:100BB8003C4B180001F0E4F81F257B197A689279FC
:100BC8001A707B6802331B781A007B6803331B7822
:100BD8001B021A437B6804331B781B041A437B6887
:100BE80005331B781B061343BB617B681B780133F5
:100BF8007B617A697B6811001800FFF79DFD03008F
:100C08003B617B69191F3A697B68180000F036FA66
:100C1800031E3CD1012000F0B5FABA69224B11003D
:100C2800180001F0ADF8BB69180000F013FB031EB3
:100C38001FD11E4B180001F0A3F80C243B191822F1
:100C48001A703B1966225A703B1913229A707B68F6
:100C5800D81D7B191A78BB69190000F081FB0300C5
:100C68001A003B19DA703B190421180000F0F2F958
:100C780013E00F4B180001F083F808217B180D4A88
:100C88001A607B180421180000F0E4F905E00A4B0B
:100C9800180001F075F800F099FAC046BD4608B092
:100CA800B0BDC046E08C0008FC8C0008188D000818
:100CB800388D000818661301D08C000890B587B0ED
:100CC80000AF78600F243B1900221A7000237B6163
:100CD8001F4B180001F054F87B681B7801333B6107
:100CE8007B681800FFF74DFD03007B613B69191F06
:100CF8007A697B68180000F0C1F9031E1ED1012033
:100D080000F040FA7B68023318787B6803331B785D
:100D18000022190000F098FC03001A003B191A7011
:100D28003B191B781A000B4B1100180001F028F82A
:100D38003B190121180000F08DF905E0064B180059
:100D480001F01EF800F042FAC046BD4607B090BD5B
:100D5800588D0008848D0008D08C000890B587B0A5
:100D680000AF78600C243B19164A1A607B681B7820
:100D780001337B617A697B6811001800FFF7DCFC9E
:100D880003003B617B69191F3A697B68180000F012
:100D980075F9031E0CD1012000F0F4F90A4B180074
:100DA80000F0EEFF3B190421180000F053F905E0AC
:100DB800064B180000F0E4FF00F008FAC046BD46F4
:100DC80007B090BD18661320908D0008FC8B0008B2
:100DD80080B586B000AF78602B4B180000F0D0FFCC
:100DE8007B681B7801337B617B681800FFF7C9FCBF
:100DF80003003B617B69191F3A697B68180000F0A2
:100E08003DF9031E36D1012000F0BCF91F4B180034
:100E180000F0B6FF0C217B181D4A1A607B180421CC
:100E2800180000F017F91B4B00221A6017E0802306
:100E38005A00194B0021180007F034FA154B1B68AB
:100E4800154A11001800FFF7F9FB134B1800FFF7BC
:100E5800ABFE104B1B685A1CFF320E4B1A600E4B30
:100E68001B78FF2BE3D10D4B180000F089FFFFF72B
:100E780041FC05E00A4B180000F082FF00F0A6F9DB
:100E8800C046BD4606B080BDB08D0008CC8D0008B8
:100E9800186613204802002048010020E08D000851
:100EA800FC8B0008B0B588B000AF7860404B1800E4
:100EB80000F066FF1F257B197A6892791A707B68A3
:100EC80002331B781A007B6803331B781B021A4312
:100ED8007B6804331B781B041A437B6805331B7833
:100EE8001B061343BB617B681B7801337B617B68FE
:100EF8001800FFF746FC03003B617B69191F3A693C
:100F08007B68180000F0BAF8031E46D1BA69294B6D
:100F18001100180000F034FF012000F033F980239D
:100F28005A00254B0021180007F0BCF9BB691800CE
:100F380000F090F9031E22D1FFF7B2FA0C243B19F6
:100F480018221A703B1966225A703B1913229A709C
:100F58007B191A787B681100180000F05BFB03000E
:100F68001A003B19DA70FFF7B1FA3B19042118008F
:100F780000F070F82021002001F01CF913E00F4B5D
:100F8800180000F0FDFE08217B180D4A1A607B1836
:100F98000421180000F05EF805E00A4B180000F084
:100FA800EFFE00F013F9C046BD4608B0B0BDC0461C
:100FB800E08C0008FC8C000848010020388D0008EF
:100FC80018661301D08C000890B587B000AF786020
:100FD8001D4B180000F0D4FE7B681B7801337B6141
:100FE8007B681800FFF7CDFB03003B617B69191F85
:100FF8003A697B68180000F041F8031E1AD10120F5
:1010080000F0C0F801220021002000F01DFB0300C1
:101018001A000F243B191A703B191B781A000B4B46
:101028001100180000F0ACFE3B190121180000F077
:1010380011F805E0064B180000F0A2FE00F0C6F813
:10104800C046BD4607B090BDF08D0008848D0008ED
:10105800D08C000880B582B000AF786039603B68FA
:101068009AB201235B427968034805F077FDC046D0
:10107800BD4602B080BDC046BC03002080B588B024
:1010880000AFF860B9607A60FF23FB6100237B61E1
:101098000023BB6110E0FA68BB69D3181B787B6139
:1010A8001423F918104B0122180001F053FF030014
:1010B800FB61BB690133BB61BA69BB689A42EAD379
:1010C800094B1B689A68084B1B6801210A439A6000
:1010D800FA697B689A4201D1002300E001231800D5
:1010E800BD4608B080BDC0464C02002090B587B010
:1010F80000AF7860204B180000F042FE7B681B7838
:1011080001337B617B681800FFF73BFB03003B6101
:101118007B69191F3A697B681800FFF7AFFF031E48
:1011280020D1012000F02EF80C243B1918221A7047
:101138003B1966225A703B1913229A7000F076F810
:1011480003001A003B19DA703B19DB781A000B4BC5
:101158001100180000F014FE3B1904211800FFF7D5
:1011680079FF05E0064B180000F00AFE00F02EF8A3
:10117800C046BD4607B090BD1C8E0008388E0008DA
:10118800D08C000880B584B000AF0200FB1D1A7037
:1011980008217B1818221A707B1866225A707B184F
:1011A80013229A707B18A522DA707B18FA1D127820
:1011B8001A7101235B4279180348052205F0CEFC19
:1011C800C046BD4604B080BDBC03002080B582B0D7
:1011D80000AF3B00074A1168196012791A710123A0
:1011E8005B4239000448042205F0B8FCC046BD46FD
:1011F80002B080BD488E0008BC03002080B500AF57
:1012080010231800BD4680BD80B582B000AF064BE4
:101218001B689AB2BB1D1205120D1A80BB1D1B88D4
:101228001800BD4602B080BD0058014080B582B0AC
:1012380000AFFB1D00221A70054B3B603B681A6823
:10124800FB1D1A70FB1D1B781800BD4602B080BD3F
:101258000078FF1F80B582B000AF78607A6880237D
:101268001B059A4205D37B68044A934201D80023A0
:1012780000E001231800BD4602B080BDFFFF010851
:10128800F0B589B000AF0200FB1D1A70BB1D0A1C27
:101298001A700C23FB18180010231A00002107F0FD
:1012A80001F80023BB601F23FB1801221A70FB1DE5
:1012B8001B783F2B01D904234AE0FB1D1B783F2BE9
:1012C80003D9FB1D1B78FF2B41D1FB1D1B78FF2B7E
:1012D8001BD10C243B1902221A601F4B1B689A026F
:1012E800FF239B02134019001C48FEF717FF030059
:1012F8001A003B199A60184B1B689A02FF239B023D
:101308001340DA0A3B19DA600BE00C217B18022241
:101318001A60FB1D1A787B189A60BB1D1A787B1817
:10132800DA600C257B1904225A6002F00FFC1F2694
:10133800BC190823FA187B191100180002F006FDE1
:101348000300237002F026FCBB191B7800E004237D
:101358001800BD4609B0F0BDE075FF1FFFEF0000A3
:10136800F0B5B3B000AFB423FB181860B023FB1876
:101378001960AC23FB181A601B23A8229B18DA19E2
:101388000123137002F006FC0023C422BA1813606C
:101398002DE102F0DBFBB423FB181A68C423FB1809
:1013A8001B68D3181B789022BA1813600023942264
:1013B800BA181360C423FB181B685A1CB423FB1803
:1013C8001B689B181B788822BA18136000238C228C
:1013D800BA1813608823FB1819685A680B001B0E8B
:1013E80010000002A4243C192060A42038180068CA
:1013F8001843A423FB1818600B001B02A022BA187C
:1014080013609023FB1819685A680800A023FB187A
:101418005C681B681D00284380257D19286023000F
:101428001A438423FB181A60C423FB181B689A1CF0
:10143800B423FB181B689B181B78BB670023FB674A
:10144800B96FFA6F0B001B0C100000049C243C19A8
:1014580020609C203818006818439C23FB181860EB
:101468000B001B049822BA1813608023FB18196814
:101478005A6808009823FB185C681B681D002843FD
:10148800386723001A437A67C423FB181B68DA1CE1
:10149800B423FB181B689B181B78BB660023FB66EC
:1014A800BB6EFC6E1A00120A7A661B063B66396F21
:1014B8007A6F08003B6E7C6E1D002843B8652300D8
:1014C8001A43FA65C423FB181B681A1DB423FB18BA
:1014D8001B689B181B783B6500237B653B6D1B00D5
:1014E800FB640023BB64B96DFA6D0800BB6CFC6C2F
:1014F8001D002843386423001A437A64C423FB1868
:101508001B685A1DB423FB181B689B181B78BB6308
:101518000023FB63BB6B1B027B6300233B63396CBB
:101528007A6C08003B6B7C6B1D002843B862230073
:101538001A43FA62C423FB181B689A1DB423FB18CC
:101548001B689B181B783B6200237B623B6A1B0469
:10155800FB610023BB61B96AFA6A0800BB69FC69D0
:101568001D002843386123001A437A61C423FB18FD
:101578001B68DA1DB423FB181B689B181B78BB601B
:101588000023FB60BB681B067B6000233B60396857
:101598007A680B003C697D6920000343B82038183D
:1015A800036013002A001343BC22BA181360B02347
:1015B800FB181A68C423FB181B68D1181B23A82220
:1015C8009B18DC19B823FB181A685B68012002F025
:1015D800DDF903002370032001F0F4FA02F0DAFACF
:1015E800C423FB181B680833C422BA181360C42329
:1015F800FB181A68AC23FB181B689A4200D2C8E68D
:101608001B23A8229B18DB191B781800BD4633B092
:10161800F0BD000080B582B000AF78603960094B3A
:101628001B683A68D2B279681800FEF765FF054B67
:101638001B685A1CFF32034B1A6000231800BD4672
:1016480002B080BD4802002090B585B000AF04000C
:1016580008001100FB1D221C1A70BB1D021C1A7009
:101668007B1D0A1C1A702F4BFB6002F0B5FAC046AE
:101678002D4B1A6980235B021340F9D17B1D1B781F
:10168800002B0ED0FB681B68FF2212041A43FB686C
:101698001A60FB681B6802221A43FB681A60002361
:1016A8003CE0BB1D1B78012B0FD1FB681B68FA1DA2
:1016B80012781204D2431A40FB681A60FB681B6850
:1016C80002221A43FB681A601EE0BB1D1B78022B1E
:1016D8001AD1FB681B68154A1A40FB681A60FB6838
:1016E8001A68FB1D1B781B041A43FB681A60FB6809
:1016F8001B68FF2212021A43FB681A60FB681B680A
:1017080002221A43FB681A60C046074B1A698023F5
:101718005B021340F9D102F087FA00231800BD4696
:1017280005B090BD143C024000200240FFFF00FFBE
:1017380080B582B000AF78600A00BB1C1A807B6855
:101748001B68084A934209D1074B01221A70BB1C37
:101758001A880649064B180006F0D8FDC046BD4653
:1017680002B080BD00480040440D0020AC040020B9
:101778007405002080B500AF01F072F900F0D0F8D0
:1017880000F06AFA00F04AFA00F0C6F900F022F90F
:1017980000F044F900F00EFA00F080F900F08AFB3E
:1017A80000F0D4FA564B180000F0EAFA554B1B78B3
:1017B800012B00D089E0544B5B78513B0E2B00D9AC
:1017C8007CE09A00514BD3181B689F464E4B18007B
:1017D800FEF7F2FF00F0BAFA4A4B00221A706EE0E8
:1017E800494B1800FFF738F800F0B0FA454B0022D3
:1017F8001A7064E0444B1800FFF770F800F0A6FA7E
:10180800404B00221A705AE03F4B1800FFF76EFC5D
:1018180000F09CFA3B4B00221A7050E03A4B18003B
:10182800FFF7B8F800F092FA364B00221A7046E03B
:10183800354B1800FFF75EF900F088FA314B0022AB
:101848001A703CE0304B1800FFF7AEF900F07EFA52
:101858002C4B00221A7032E02B4B1800FFF72EFA9F
:1018680000F074FA274B00221A7028E0264B180063
:10187800FFF7AAFB00F06AFA224B00221A701EE05A
:10188800214B1800FFF76AFA00F060FA1D4B00229E
:101898001A7014E01C4B1800FFF704FB00F056FA0E
:1018A800184B00221A700AE0174B1800FFF790FA3D
:1018B80000F04CFA134B00221A7000E0C046124B9D
:1018C800C8220021180006F0EDFC80239B01104A75
:1018D8001900100002F012FD0300012B04D10D4B7A
:1018E800180000F04DFA05E00B4B180000F048FA1C
:1018F80000F070FA094B180000F042FA52E7C046AF
:10190800508E0008440D0020AC0400205C960008AE
:10191800000800505C8E0008788E0008988E000839
:1019280090B593B000AF14243B19180034231A0063
:10193800002106F0B7FC3B1D180010231A000021F7
:1019480006F0B0FC80239B00180003F0DBFA3B197B
:1019580002221A603B1980225200DA6021007B18AB
:1019680000221A617B1840225A617B180222DA6130
:101978007B1802221A627B1800225A627B180822FE
:101988009A627B1880229202DA627B188022920582
:101998001A637B18180003F07DFB031E01D000F0CA
:1019A80083FA3B1D07221A603B1D02225A603B1D29
:1019B80000229A603B1D0022DA603B1D02211800BC
:1019C80003F078FE031E01D000F06EFAC046BD4653
:1019D80013B090BD80B500AF0E4B0F4A1A600D4B87
:1019E80000221A710B4B00225A710A4B00225A61CD
:1019F800084B00229A61074B03221A62054B180014
:101A080001F014FA031E01D000F04EFAC046BD469C
:101A180080BDC0464C0200200030024080B500AFB7
:101A28001B4B1C4A1A601A4B1B4A5A60184B00225F
:101A38009A60174B0122DA60154B00221A61144B89
:101A480000225A61124B00229A61114B0022DA617E
:101A58000F4B00221A620E4B180002F089FC031E7D
:101A680001D000F021FA0A4B0021180003F0B2F966
:101A7800031E01D000F018FA054B0021180003F0EE
:101A8800F5F9031E01D000F00FFAC046BD4680BD2F
:101A980070020020005400406621C10080B500AFEC
:101AA8001B4B1C4A1A601A4B822252005A60184B70
:101AB80000229A60164BE022D200DA60144B002212
:101AC8001A61134B00225A61114B802292009A61CD
:101AD8000F4B2022DA610E4B00221A620C4B0022B7
:101AE8005A620B4B00229A62094B0722DA62084BB2
:101AF80000221A63064B08225A63054B180004F0AB
:101B0800B7F8031E01D000F0CFF9C046BD4680BD2E
:101B1800C40200200030014080B500AF234B244AA6
:101B28001A60224BE12252025A60204B8022520551
:101B38009A601E4B0022DA601C4B00221A611B4B74
:101B48000C225A61194B00229A61184B0022DA6163
:101B5800164B00221A62154B00225A62134B0022C0
:101B68009A62124B180004F0A3FF031E01D000F084
:101B78009BF90E4B0021180006F02AFA031E01D02B
:101B880000F092F9094B0021180006F061FA031ED3
:101B980001D000F089F9054B180006F0DFF9031EA3
:101BA80001D000F081F9C046BD4680BD2803002061
:101BB8000044004080B500AF164B174A1A60154B19
:101BC800962292015A60134B00229A60114B002210
:101BD800DA60104B00221A610E4B0C225A610D4B31
:101BE80000229A610B4B0022DA610A4B00221A622A
:101BF800084B00225A62074B00229A62054B1800D4
:101C080004F056FF031E01D000F04EF9C046BD4651
:101C180080BDC046BC0300200048004080B582B0AB
:101C280000AF0C4B9A6B0B4B01210A439A63094B8B
:101C38009B6B012213407B607B68002200210920F6
:101C480001F0B2F8092001F0C4F8C046BD4602B060
:101C580080BDC0460010024090B58BB000AF142480
:101C68003B19180014231A00002106F01BFB344B03
:101C78005A6B334B04210A435A63314B5B6B042282
:101C880013403B613B692E4B5A6B2D4B20210A4375
:101C98005A632B4B5B6B20221340FB60FB68284B7D
:101CA8005A6B274B01210A435A63254B5B6B012270
:101CB8001340BB60BB68224B5A6B214B02210A437D
:101CC8005A631F4B5B6B022213407B607B681C4B83
:101CD8005A6B1B4B08210A435A63194B5B6B08224A
:101CE80013403B603B68174B01220121180002F0AA
:101CF80022FB3B19802292011A603B1900225A608C
:101D08003B1900229A603B190F4A1900100002F093
:101D1800C1F821007B1801221A607B1801225A6041
:101D28007B1800229A607B180322DA607B18054A28
:101D38001900100002F0AEF8C046BD460BB090BDC9
:101D480000100240000400500008005080B500AFA9
:101D58000849094BC822180006F0BCF9074B1B6854
:101D68001A68064B1B6804218A431A60C046BD46A0
:101D780080BDC046AC040020BC03002050040020F5
:101D88000FB480B59AB000AF3B1D180064231A0049
:101D9800002106F087FA7423FB183B603A68396F14
:101DA8003B1D180006F072FA0021002000F002FA2C
:101DB80007493B1D0122180000F096FA00F03EF991
:101DC800C046BD461AB080BC08BC04B01847C0461F
:101DD8000000002080B584B000AF264B1800FFF744
:101DE800CFFF254B1B68FB60FA68244B11001800D5
:101DF800FFF7C6FF224B1B68BB60BA68214B110076
:101E08001800FFF7BDFF204B1B4A9A601F4B0022AA
:101E18001A601E4B00225A601C4B00229A601C4B11
:101E2800180002F04BFB1B4B180000F039FD802313
:101E38009B01194A1900100002F090F9174B18007D
:101E480000F02EFD164B180001F094FA154B1800FF
:101E580001F052F803F0A2F800F022FE084B1B68CC
:101E6800BB60BB687B607B689847C046BD4604B0D2
:101E780080BDC046A08E000800100108C88E00086A
:101E880004100108DC8E000800ED00E010E000E01E
:101E980070020020BC030020000800502803002026
:101EA800500400204C02002080B500AF72B6C04636
:101EB800C046FDE780B582B000AF00F03BFA5B4B4F
:101EC8005B480122782102F053FC031E01D0002355
:101ED800A8E0584B7B6002E07B68013B7B607B6835
:101EE800002BF9D1AE220021782000F0A3FA20229D
:101EF8000021782000F09EFA10220021782000F0BE
:101F080099FAB0220021782000F094FAC822002122
:101F1800782000F08FFA00220021782000F08AFA59
:101F280010220021782000F085FA40220021782034
:101F380000F080FA81220021782000F07BFAFF224D
:101F48000021782000F076FAA1220021782000F004
:101F580071FAA6220021782000F06CFAA82200214C
:101F6800782000F067FA3F220021782000F062FA1A
:101F7800A4220021782000F05DFAD32200217820E5
:101F880000F058FA00220021782000F053FAD522F8
:101F98000021782000F04EFAF0220021782000F08D
:101FA80049FAD9220021782000F044FA222200219F
:101FB800782000F03FFADA220021782000F03AFA7F
:101FC80012220021782000F035FADB220021782047
:101FD80000F030FA20220021782000F02BFA8D2220
:101FE8000021782000F026FA14220021782000F041
:101FF80021FAAF220021782000F01CFA2E220021BD
:10200800782000F017FA002000F04CF800F016F8DD
:10201800094B00221A80084B00225A80064B0122E5
:102028005A7101231800BD4602B080BD204E000041
:1020380070020020C40900004811002080B582B059
:1020480000AFFB1D00221A7021E0FB1D1B78503BDE
:10205800DBB21A000021782000F0ECF90022002100
:10206800782000F0E7F910220021782000F0E2F94A
:10207800FB1D1B78DA010A4BD218802340217820F7
:1020880000F06CF9FB1D1A78FB1D01321A70FB1D5C
:102098001B78072BD9D9C046C046BD4602B080BDC3
:1020A800480D002080B582B000AF0200FB1D1A70F9
:1020B800FB1D1B78002B01D1002300E0FF238022A9
:1020C800D2000448190006F0EDF8C046BD4602B03B
:1020D80080BDC046480D002090B583B000AF040015
:1020E80008001100BB1D221C1A803B1D021C1A800F
:1020F800FB1C0A1C1A70BB1D1B887F2B52D83B1D6A
:102108001B883F2B4ED8294B1B79002B06D0FB1C74
:102118001B785A425341DAB2FB1C1A70FB1C1B781D
:10212800012B1ED1BB1D1A883B1D1B88DB0898B2EA
:102138000300DB01D3181E4AD35C5AB23B1D1B882F
:1021480007210B40012199400B005BB2134359B2A0
:10215800BB1D1A880300DB01D318C9B2144AD15435
:1021680021E0BB1D1A883B1D1B88DB0898B20300C1
:10217800DB01D3180E4AD35C5BB23A1D12880721E3
:102188000A40012191400A0052B2D24352B2134090
:1021980059B2BB1D1A880300DB01D318C9B2044A1F
:1021A800D15400E0C046BD4603B090BD48110020A0
:1021B800480D002080B582B000AF0200BB1D1A8018
:1021C8003B1D0A1C1A80064BBA1D12881A80044B44
:1021D8003A1D12885A80C046BD4602B080BDC0462E
:1021E8004811002080B586B000AF39601100FB1D92
:1021F800021C1A70BB1D0A1C1A703A4B1B881A0065
:102208003B681B78D3187F2B07DC364B5B881A009A
:102218003B685B78D3183F2B01DD00235DE000238A
:102228007B614AE03B685A68FB1D1B78203B396894
:1022380049784B4319007B69CB185B00D3181B887E
:10224800FB6000233B612FE0FA683B699A408023DA
:102258001B02134011D0234B1A883B699BB2D31839
:1022680098B2204B5A887B699BB2D31899B2BB1D90
:102278001B781A00FFF730FF13E01A4B1A883B69E6
:102288009BB2D31898B2174B5A887B699BB2D31864
:1022980099B2BB1D1B785A425341DBB21A00FFF7B3
:1022A8001BFF3B6901333B613B681B781A003B69A4
:1022B8009342C9D37B6901337B613B685B781A0021
:1022C8007B699342AED3074B1B883A6812789B18F8
:1022D8009AB2044B1A80FB1D1B781800BD4606B045
:1022E80080BDC0464811002080B584B000AFF860BA
:1022F800B960FB1D1A7013E0FB681878FB1D1A788B
:10230800BB681900FFF76EFF03001A00FB681B7813
:102318009A4202D0FB681B7808E0FB680133FB6037
:10232800FB681B78002BE7D1FB681B781800BD46BB
:1023380004B080BD80B582B000AF074B7B6002E07F
:102348007B68013B7B607B68002BF9D1C046C046A7
:10235800BD4602B080BDC04690D00300B0B5C6B03F
:1023680002AF040008003A6019002D4B88256D0063
:102378005B19DB19221C1A702A4B2C001B19DB195C
:10238800021C1A70284B20001B18DB190A1C1A8023
:10239800264B1B18DB19234A1218D21912781A7007
:1023A8001023FF33FB1800221A7014E01020FF30AE
:1023B8003B181B783A68D2183B181B780133117800
:1023C8001A4A882464001219D219D1543B181A7871
:1023D8003B1801321A701023FF33FB181B789BB28D
:1023E800114A882149005218D21912889A42DDD818
:1023F8000B4B0A009B18DB191B7899B20A4B9B18E8
:10240800DB191B8801339BB20C22BA1808480A242E
:10241800009402F083F8C046BD4644B0B0BDC04643
:10242800F7FEFFFFF6FEFFFFF4FEFFFFFCFEFFFFD7
:102438007002002090B587B002AF040008001100B8
:10244800FB1D221C1A70BB1D021C1A707B1D0A1C66
:102458001A700C203B18BA1D12781A703B187A1D96
:1024680012785A70FB1D1B7899B23A1804480A234F
:102478000093022302F052F8C046BD4605B090BD55
:102488007002002080B582B000AF134B1A6C124B5B
:1024980001210A431A64104B1B6C012213407B6014
:1024A8007B680D4BDA6B0C4B802149050A43DA63D4
:1024B800094BDA6B80235B0513403B603B680022C5
:1024C8000121032000F070FC032000F082FCC046CC
:1024D800BD4602B080BDC0460010024080B584B041
:1024E80000AF78607B681B680A4A93420DD10A4B9B
:1024F8009A6B094B802149010A439A63064B9A6BF0
:1025080080235B011340FB60FB68C046BD4604B0F6
:1025180080BDC046003002400010024080B582B045
:1025280000AF78607B681B68064A934205D1064B6A
:102538009A6B054B05490A409A63C046BD4602B0EE
:1025480080BDC0460030024000100240FFEFFFFF90
:1025580090B591B000AF78602C23FB1818001423B5
:102568001A00002105F09EFE10243B1918001C23B8
:102578001A00002105F096FE7B681B68224A9342E8
:102588003ED13B1920221A603B190022DA603B1920
:10259800180003F039FA031E01D0FFF785FC1B4B26
:1025A8005A6B1A4B02210A435A63184B5B6B02227F
:1025B8001340FB60FB682C217B18C02292001A6034
:1025C8007B1812225A607B1800229A607B1800221E
:1025D800DA607B1806221A617B180D4A1900100070
:1025E80001F058FC094BDA6B084B802189030A4338
:1025F800DA63064BDA6B80239B031340BB60BB682E
:10260800C046BD4611B090BD0054004000100240C5
:102618000004005080B582B000AF78607B681B680A
:102628000D4A934213D10D4BDA6B0C4B0C490A40FF
:10263800DA6380235B000B4A1900100001F08EFD5D
:1026480080239B00074A1900100001F087FDC0464F
:10265800BD4602B080BDC046005400400010024094
:10266800FFFFDFFF0004005090B58BB000AF78602B
:1026780014243B19180014231A00002105F012FE37
:102688007B681B681B4A934230D11B4B1A6C1A4B50
:10269800802149010A431A64174B1A6C80235B0195
:1026A80013403B613B69144B5A6B134B01210A439E
:1026B8005A63114B5B6B01221340FB60FB682100DE
:1026C8007B18E0221A607B1802225A607B180022CD
:1026D8009A607B180022DA607B1800221A617A1847
:1026E800A023DB051100180001F0D4FBC046BD464D
:1026F8000BB090BD003001400010024090B593B07F
:1027080000AF78603423FB18180014231A00002146
:1027180005F0C8FD18243B1918001C231A000021D5
:1027280005F0C0FD7B681B68574A93423FD13B19AF
:1027380002221A603B1900229A603B19180003F024
:1027480063F9031E01D0FFF7AFFB504BDA6B4F4B19
:10275800802189020A43DA634C4BDA6B80239B029F
:1027680013407B617B69494B5A6B484B01210A43F3
:102778005A63464B5B6B012213403B613B69342132
:102788007B180C221A607B1802225A607B180122DF
:102798009A607B180022DA607B1801221A617A1885
:1027A800A023DB051100180001F074FB67E07B68CB
:1027B8001B68374A934262D1344BDA6B334B802122
:1027C800C9020A43DA63314BDA6B8023DB02134018
:1027D800FB60FB682D4B5A6B2C4B08210A435A634C
:1027E8002A4B5B6B08221340BB60BB6834217B1803
:1027F800C02292001A607B1802225A607B180022BD
:102808009A607B180022DA607B1800221A617B1814
:10281800204A1900100001F03DFB1F4B1F4A1A60A7
:102828001D4B36225A601C4B00229A601A4B00221C
:10283800DA60194B80221A61174B00225A61164B35
:1028480000229A61144B0022DA61134B00221A62AB
:10285800114B180000F004FD031E01D0FFF724FB04
:102868007B6880210C4A5A500B4B7A689A62002286
:1028780000211D2000F098FA1D2000F0AAFAC04699
:10288800BD4613B090BDC046004400400010024051
:1028980000480040000C005050040020080002408E
:1028A80080B582B000AF78607B681B68174A934296
:1028B8000CD1174BDA6B164B16490A40DA63A02382
:1028C800DB050C21180001F049FC1AE07B681B6845
:1028D800114A934215D10E4BDA6B0D4B0F490A4042
:1028E800DA63C0239B000E4A1900100001F036FC81
:1028F8007B6880229B58180000F03CFD1D2000F0EA
:1029080078FAC046BD4602B080BDC04600440040CB
:1029180000100240FFFFFDFF00480040FFFFFBFFE3
:10292800000C005080B500AFC046FDE780B500AF91
:10293800C046FDE780B500AFC046BD4680BD80B546
:1029480000AFC046BD4680BD80B500AF00F01EF99F
:10295800C046BD4680BD80B500AF01F065F8C046F1
:10296800BD4680BD80B500AF034B180000F0CCFE1B
:10297800C046BD4680BDC0465004002080B500AFAB
:10298800034B180004F08EF9C046BD4680BDC04612
:10299800BC03002080B586B000AF7860144A154BA0
:1029A800D31A7B617B693B61134B1B68002B02D1F7
:1029B800114B124A1A60104B1A687B68D3183A698F
:1029C8009A4207D205F076FC03000C221A60012314
:1029D8005B4209E0084B1B68FB60074B1A687B6881
:1029E800D218054B1A60FB681800BD4606B080BDBA
:1029F800009000200004000050110020C0120020A8
:102A080080B500AFC046BD4680BD00000D48854674
:102A1800FFF7F6FF0C480D490D4A002302E0D45891
:102A2800C4500433C4188C42F9D30A4A0A4C002310
:102A380001E013600432A242FBD305F041FCFEF72B
:102A480099FEFEE70090002000000020F80000201A
:102A58005C970008F8000020BC120020FEE7000088
:102A680080B582B000AFFB1D00221A700B4B1A68AC
:102A78000A4B802149000A431A60002000F03CF804
:102A8800031E03D0FB1D01221A7001E0FFF7FAFCB8
:102A9800FB1D1B781800BD4602B080BD0020024017
:102AA80080B500AF104B01225242DA620E4B002271
:102AB800DA620D4B012252421A630B4B00221A6351
:102AC800094B012252429A62074B00229A62064B36
:102AD800012252425A62044B00225A6200F006F860
:102AE80000231800BD4680BD0010024080B500AF2D
:102AF800C046BD4680BD000090B585B000AF786087
:102B08000F23FB1800221A701D4B1B78002B2BD0AB
:102B18001C4B1C681A4B1B781900FA239800FDF708
:102B2800FDFA030019002000FDF7F8FA0300180069
:102B380000F06FF9031E12D17B68032B0AD879685D
:102B480001235B420022180000F02EF90E4B7A6830
:102B58001A600DE00F23FB1801221A7008E00F23FA
:102B6800FB1801221A7003E00F23FB1801221A70C8
:102B78000F23FB181B781800BD4605B090BDC04652
:102B88001C000020140000201800002080B500AFB1
:102B9800054B1B781A00054B1B68D218034B1A60AB
:102BA800C046BD4680BDC0461C0000205411002010
:102BB80080B500AF024B1B681800BD4680BDC046FB
:102BC8005411002080B584B000AF7860FFF7F0FFA3
:102BD8000300BB607B68FB60FB68013305D00A4BD0
:102BE8001B781A00FB689B18FB60C046FFF7E0FFE4
:102BF8000200BB68D31AFA689A42F7D8C046C046A2
:102C0800BD4604B080BDC0461C00002080B582B01F
:102C180000AF0200FB1D1A70FB1D1B787F2B09D823
:102C2800FB1D1B781A001F231A40044B01219140F9
:102C38000A001A60C046BD4602B080BD00E100E04F
:102C480080B582B000AF0200FB1D1A70FB1D1B7817
:102C58007F2B10D8FB1D1B781A001F23134008492F
:102C680001229A40130080228B50BFF34F8FC04639
:102C7800BFF36F8FC046C046BD4602B080BDC04698
:102C880000E100E090B583B000AF02003960FB1DA1
:102C98001A70FB1D1B787F2B28D82F4AFB1D1B7829
:102CA8005BB29B08C0339B009B58FA1D1278110039
:102CB80003220A40D200FF2191400A00D2431A4061
:102CC80011003B689B01FF221A40FB1D1B7818006E
:102CD80003230340DB009A401F48FB1D1B785BB2AF
:102CE8009B080A43C0339B001A5031E01B4AFB1D66
:102CF8001B7819000F230B40083B9B0806339B00E9
:102D0800D31804331B68FA1D1278110003220A40F5
:102D1800D200FF2191400A00D2431A4011003B68BB
:102D28009B01FF221A40FB1D1B7818000323034058
:102D3800DB009A400948FB1D1B781C000F23234029
:102D4800083B9B080A4306339B00C31804331A60E8
:102D5800C046BD4603B090BD00E100E000ED00E0D4
:102D680080B582B000AF78607B685A1E80235B0410
:102D78009A4201D3012310E00A4B7A68013A5A605B
:102D880001235B4203211800FFF77CFF054B00225B
:102D98009A60044B07221A6000231800BD4602B04F
:102DA80080BDC04610E000E080B584B000AFB960D7
:102DB8007A600F217B18021C1A70BA687B181B787E
:102DC8005BB211001800FFF75DFFC046BD4604B0B6
:102DD80080BD80B582B000AF0200FB1D1A70FB1DDC
:102DE8001B785BB21800FFF711FFC046BD4602B062
:102DF80080BD80B582B000AF0200FB1D1A70FB1DBC
:102E08001B785BB21800FFF71BFFC046BD4602B037
:102E180080BD80B582B000AF78607B681800FFF78E
:102E28009FFF03001800BD4602B080BD80B582B088
:102E380000AF78607B68002B01D1012356E07B68E6
:102E48005B7FDBB2002B06D17B6800221A777B6898
:102E58001800FFF743FB7B6802225A777B681B79CF
:102E6800002B0CD17B681B68224A5A617B681B685F
:102E78009A687B681B6818218A439A600BE07B6814
:102E880099687B68DA687B68180000F074F9031E9B
:102E980001D001232AE07B685B79002B05D17B6890
:102EA8001B68012252421A6104E07B681B687A6839
:102EB80012691A617B681B689B686022934319003A
:102EC8007B685A697B681B680A439A607B681B6841
:102ED8009B688022934319007B689A697B681B680A
:102EE8000A439A607B6801225A7700231800BD467E
:102EF80002B080BDB71DC10480B582B000AF786054
:102F08007B68002B01D1012320E07B685B7FDBB26B
:102F1800022B01D1022319E07B6802225A777B68D1
:102F28001B689A687B681B6801210A439A607B6862
:102F38001B6800225A607B681800FFF7EFFA7B686D
:102F480000225A777B6800221A7700231800BD46B2
:102F580002B080BD80B586B000AFF860B9607A6015
:102F680000233B61FB6802225A77FB681B6A032B2C
:102F780005D02DD8012B19D0022B20D028E0002312
:102F88007B610AE07B699B00BA68D218FB681B6802
:102F980012681A607B6901337B617A697B689A429F
:102FA800F0D3FB681B681B683B6112E07A68B9685C
:102FB800FB68180000F015F803003B6109E07A6827
:102FC800B968FB68180000F09FF803003B6100E057
:102FD800C046FB6801225A773B691800BD4606B017
:102FE80080BD80B588B000AFF860B9607A60002312
:102FF800FB6123E0FB699B00BA68D3181B781A06AB
:10300800FB699B000133B968CB181B781B041A4372
:10301800FB699B000233B968CB181B781B021A4363
:10302800FB699B000333B968CB181B781900FB6850
:103038001B680A431A60FB690133FB617B689B08C4
:10304800FA699A42D6D37B680322134055D07B682D
:1030580003221340012B07D1FB699B00BA68D218E1
:10306800FB681B6812781A707B6803221340022BD6
:103078001AD1FB699B00BA68D3181B781BB21B02D4
:103088001AB2FB699B000133B968CB181B781BB2D5
:1030980013431AB21A217B181A80FB681B687B61DC
:1030A8007B697A1812881A807B6803221340032BE5
:1030B80023D1FB699B00BA68D3181B781BB21B028B
:1030C8001AB2FB699B000133B968CB181B781BB295
:1030D80013431AB21A217B181A80FB681B687B619C
:1030E8007B697A1812881A80FB699B000233BA68D8
:1030F800D218FB681B6812781A70FB681B681B687B
:103108001800BD4608B080BD80B586B000AFF86035
:10311800B9607A6000237B6113E07B699B00BA6821
:10312800D3181B881A047B699B000233B968CB1833
:103138001B881900FB681B680A431A607B69013306
:103148007B617B685B087A699A42E6D37B680122D7
:10315800134009D0FB681B683B617B699B00BA6818
:10316800D3181A883B691A80FB681B681B6818000B
:10317800BD4606B080BD80B586B000AFF860B960C6
:103188007A6017217B1800221A701F233B61BB68E5
:103198000122134003D17B1801221A7045E0C04672
:1031A8003B695A1E3A61002B08D03B691F22134025
:1031B800BA68DA40130001221340F1D07B68182B5B
:1031C8000FD07B68182B24D87B68102B11D07B6814
:1031D800102B1ED87B68002B20D07B68082B10D0C2
:1031E80017E03B69062B1BD91723FB1801221A701D
:1031F80016E03B69072B15D91723FB1801221A7013
:1032080010E03B690F2B0FD91723FB1801221A7006
:103218000AE01723FB1801221A7006E0C04604E0F2
:10322800C04602E0C04600E0C0461723FB181B78E2
:10323800002B0ED1FB681B68BA685A61FB681B68D3
:103248009B68182293431900FB681B687A680A4335
:103258009A601723FB181B781800BD4606B080BD7E
:1032680080B582B000AF78607B68002B01D1012364
:1032780077E07B681B683D4A944663441421180034
:10328800FCF74CFF03009A007B681A647B682522D0
:10329800022199547B681B681A687B681B6834494B
:1032A8000A401A607B681B6819687B689A687B68A3
:1032B800DB681A437B681B691A437B685B691A439E
:1032C8007B689B691A437B68DB691A437B681B6AC6
:1032D8001A437B681B680A431A607B68180000F071
:1032E80005FB7B689A688023DB019A4202D17B68E0
:1032F80000225A607B685A687B685B6C3F210A40F1
:103308001A607B689B6C7A68D26C5A607B685B68D1
:10331800002B11D07B685B68042B0DD87B681800E4
:1033280000F010FB7B681B6D00221A607B685B6DE8
:103338007A68926D5A6008E07B6800221A657B689B
:1033480000225A657B6800229A657B680022DA634E
:103358007B682522012199547B68242200219954F5
:1033680000231800BD4602B080BDC046F8FFFDBF6F
:103378000F80FFFF80B582B000AF78607B68002BBC
:1033880001D1012366E07B681B681A687B681B68AB
:1033980001218A431A607B681B68304A944663445B
:1033A80014211800FCF7BAFE03009A007B681A641F
:1033B8007B681B6800221A60294B59687B681B6C64
:1033C8001C22134001229A40254B0A435A607B680D
:1033D800180000F08BFA7B685B6C00221A607B682F
:1033E8009B6C7A68D26C5A607B685B68002B10D043
:1033F8007B685B68042B0CD87B68180000F0A2FA85
:103408007B681B6D00221A607B685B6D7A68926D21
:103418005A607B6800221A657B6800225A657B68BF
:1034280000229A657B680022DA627B6800221A63B0
:103438007B6800225A637B6800229A637B680022BB
:10344800DA637B682522002199547B6824220021B5
:10345800995400231800BD4602B080BDF8FFFDBF97
:103468000000024080B586B000AFF860B9607A60AD
:103478003B601723FB1800221A70FB6824229B5C10
:10348800012B01D102236FE0FB682422012199540A
:10349800FB6825229B5CDBB2012B57D1FB682522F8
:1034A80002219954FB680022DA63FB681B681A68DA
:1034B800FB681B6801218A431A603B687A68B9680F
:1034C800F86800F0D3F9FB681B6B002B08D0FB6889
:1034D8001B681A68FB681B680E210A431A600FE014
:1034E800FB681B681A68FB681B6804218A431A601A
:1034F800FB681B681A68FB681B680A210A431A6084
:10350800FB685B6C1A6880235B02134008D0FB6879
:103518005B6C1A68FB685B6C802149000A431A607F
:10352800FB681B6D002B08D0FB681B6D1A68FB68D5
:103538001B6D802149000A431A60FB681B681A68E2
:10354800FB681B6801210A431A600AE0FB688022B5
:10355800DA63FB682422002199541723FB180122FF
:103568001A701723FB181B781800BD4606B080BDDB
:1035780080B582B000AF78607B68002B01D1012351
:1035880050E07B6825229B5CDBB2022B08D07B686D
:103598000422DA637B68242200219954012341E044
:1035A8007B681B681A687B681B680E218A431A604F
:1035B8007B685B6C1A687B685B6C1C490A401A6004
:1035C8007B681B681A687B681B6801218A431A603C
:1035D800174B59687B681B6C1C22134001229A40C8
:1035E800134B0A435A607B689B6C7A68D26C5A60AA
:1035F8007B681B6D002B0CD07B681B6D1A687B6881
:103608001B6D0A490A401A607B685B6D7A68926D87
:103618005A607B682522012199547B682422002165
:10362800995400231800BD4602B080BDFFFEFFFF7D
:103638000000024080B584B000AF78600F217B188D
:1036480000221A707B6825229B5CDBB2022B06D015
:103658007B680422DA637B1801221A7049E07B68D0
:103668001B681A687B681B680E218A431A607B688E
:103678001B681A687B681B6801218A431A607B688B
:103688005B6C1A687B685B6C1D490A401A601D4BAD
:1036980059687B681B6C1C22134001229A40194B05
:1036A8000A435A607B689B6C7A68D26C5A607B6864
:1036B8001B6D002B0CD07B681B6D1A687B681B6D1B
:1036C8000F490A401A607B685B6D7A68926D5A6090
:1036D8007B682522012199547B6824220021995472
:1036E8007B689B6B002B04D07B689B6B7A6810000F
:1036F80098470F23FB181B781800BD4604B080BDFF
:10370800FFFEFFFF0000024080B584B000AF786084
:10371800554B1B68FB607B681B681B68BB607B683C
:103728001B6C1C22134004229A401300FA681340B1
:1037380027D0BB680422134023D07B681B681B6812
:103748002022134007D17B681B681A687B681B68B6
:1037580004218A431A60444B59687B681B6C1C22FD
:10376800134004229A40404B0A435A607B681B6B03
:10377800002B00D173E07B681B6B7A6810009847B8
:103788006DE07B681B6C1C22134002229A401300D8
:10379800FA6813402ED0BB68022213402AD07B68F7
:1037A8001B681B68202213400BD17B681B681A68B2
:1037B8007B681B680A218A431A607B6825220121DD
:1037C8009954294B59687B681B6C1C2213400222B0
:1037D8009A40254B0A435A607B6824220021995459
:1037E8007B68DB6A002B3AD07B68DB6A7A6810005A
:1037F800984734E07B681B6C1C22134008229A40CF
:103808001300FA6813402BD0BB680822134027D056
:103818007B681B681A687B681B680E218A431A60DC
:10382800114B59687B681B6C1C22134001229A407B
:103838000D4B0A435A607B680122DA637B682522B4
:10384800012199547B682422002199547B685B6B81
:10385800002B05D07B685B6B7A6810009847C046E0
:10386800C046BD4604B080BD0000024080B584B0AB
:1038780000AFF860B9607A603B60FB689B6CFA68DF
:10388800D26C5A60FB681B6D002B04D0FB685B6D23
:10389800FA68926D5A60144B5968FB681B6C1C22BD
:1038A800134001229A40104B0A435A60FB681B6878
:1038B8003A685A60FB689B68102B08D1FB681B6844
:1038C8007A689A60FB681B68BA68DA6007E0FB6888
:1038D8001B68BA689A60FB681B687A68DA60C04639
:1038E800BD4604B080BDC0460000024080B584B02B
:1038F80000AF78607B681B6C9B08104A9446634451
:103908009B001A007B685A647B681B681A00FF23B7
:103918001340083B14211800FCF700FC0300FB606F
:103928007B68074A9A64FB681F22134001229A4069
:103938007B68DA64C046BD4604B080BD00820010D2
:103948008008024080B584B000AF78607B685B680F
:103958003F221340FB60FB680A4A944663449B007D
:103968001A007B681A657B68074A5A65FB68013B41
:103978000322134001229A407B689A65C046BD46DF
:1039880004B080BD3F82001040090240B0B586B047
:1039980000AFF860B9603A607B60214B1B78012B5F
:1039A80001D1022338E01E4B01221A701C4B002261
:1039B8005A6017257C19FA239B00180000F058F963
:1039C800030023707B191B78002B1FD1FB68012B88
:1039D80006D13A687B68B968080000F097F905E0F5
:1039E8003A68BB681100180005F0E6F81723FC18C0
:1039F800FA239B00180000F03BF903002370094BE1
:103A08005A69FB68D943074B0A405A61044B0022A4
:103A18001A701723FB181B781800BD4606B0B0BDF6
:103A2800581100200020024080B582B000AF3A4B08
:103A38001B693A4A13403B60394B9B680422134088
:103A480003D0374B1B697B6013E0334B5A69344B07
:103A58009B68D943304B0A405A61314B9B68314AC5
:103A6800134003D02E4BDB687B6002E02C4B5B6974
:103A78007B603B68002B0FD0294B5A683B681A4380
:103A8800274B5A60244B254A1A61254B00229A601D
:103A98007B68180000F052F81F4B1B690122134085
:103AA80028D01D4B01221A611D4B9B68022B1AD18D
:103AB8001B4B9B695A1E1A4B9A61194B9B69002B29
:103AC8000DD0174B5B695A1C154B5A61144B1A6978
:103AD800134B5B691900100000F0C0F906E0104BA9
:103AE80000229A6002E00E4B00229A607B68180060
:103AF80000F01CF80A4B9B68002B08D1064B5A694A
:103B0800054B09490A405A61054B00221A70C04604
:103B1800BD4602B080BDC04600200240FA830000C6
:103B28005811002001000400FFFFFFFC80B582B09F
:103B380000AF7860C046BD4602B080BD80B582B097
:103B480000AF7860C046BD4602B080BD80B582B087
:103B580000AFFB1D00221A700B4B5B69002B0CDABF
:103B6800094B0A4A9A60084B094A9A60064B5B69F6
:103B7800002B02DAFB1D01221A70FB1D1B781800AE
:103B8800BD4602B080BDC046002002402301674503
:103B9800AB89EFCD80B582B000AFFB1D01221A7052
:103BA800FA239B00180000F063F80A4B5A69094B86
:103BB800802109060A435A61064B5B69002B02DA29
:103BC800FB1D00221A70FB1D1B781800BD4602B0B1
:103BD80080BDC0460020024080B582B000AFFB1D0A
:103BE80001221A700D4B5A698023DB0513400ED051
:103BF8000A4B0B4ADA60094B0A4ADA60074B5A69E2
:103C08008023DB05134002D1FB1D00221A70FB1D27
:103C18001B781800BD4602B080BDC0460020024097
:103C28003B2A19087F6E5D4C80B582B000AFFB1D42
:103C380001221A70FA239B00180000F019F80B4BA8
:103C48005A690A4B8021C9050A435A61074B5A69C8
:103C58008023DB05134002D0FB1D00221A70FB1DD8
:103C68001B781800BD4602B080BDC0460020024047
:103C780080B584B000AF7860FEF79AFF0300FB6060
:103C880080235B02BB600CE07B68013309D0FEF740
:103C98008FFF0200FB68D31A7A689A4201D803237F
:103CA80028E0164B1B69BA681340EDD1134B1B690A
:103CB800134A1340BB60114B124A1A61BB68002BB0
:103CC80011D0114BBA685A60012313E07B680133A5
:103CD80009D0FEF76DFF0200FB68D31A7A689A4292
:103CE80001D8032306E0054B1A698023DB02134041
:103CF800ECD100231800BD4604B080BD002002406E
:103D0800FA830000FB83000058110020B0B584B08E
:103D180000AFF8603A607B600B4B5A690A4B01218F
:103D28000A435A61FB683A681A60BFF36F8FC0464E
:103D38007B681C0000231D00FB68043322001A6006
:103D4800C046BD4604B0B0BD00200240B0B584B046
:103D580000AF78603960354B1B78012B01D1022305
:103D68005FE0324B01221A70304B00225A600F2557
:103D78007C19FA239B001800FFF77AFF03002370D1
:103D88002C003B191B78002B45D17B6804225A6014
:103D98007B681B68042B0DD17B685B68180000F0FA
:103DA80049F83C19FA239B001800FFF761FF03004C
:103DB800237030E03B68012252421A607B689B689E
:103DC800BB601AE07B685B68BA681100180000F0F5
:103DD80045F80F257C19FA239B001800FFF748FFC8
:103DE800030023707B191B78002B03D03B68BA684B
:103DF8001A600AE0BB680133BB607B689A687B681D
:103E0800DB68D318BA689A42DCD3094B5A69084B65
:103E180002218A435A61054B00221A700F23FB18AE
:103E28001B781800BD4604B0B0BDC046581100202C
:103E38000020024080B582B000AF7860064B5A6916
:103E48007B681A43044B802149020A435A61C046E1
:103E5800BD4602B080BDC0460020024080B584B097
:103E680000AF78603960084B5B69084A1340FB6013
:103E78003B68DA00FB681A43034B05490A435A6159
:103E8800C046BD4604B080BD0020024007E0FFFFE9
:103E98000200010080B586B000AF78603960002369
:103EA8007B6147E13B681B6801217A6991400A0000
:103EB8001340FB60FB68002B00D138E13B685B686E
:103EC80003221340012B05D03B685B680322134093
:103ED800022B30D17B689B683B617B695B000322C6
:103EE8009A401300DA433B6913403B613B68DA6848
:103EF8007B695B009A4013003A6913433B617B6816
:103F08003A699A607B685B683B6101227B699A40E9
:103F18001300DA433B6913403B613B685B681B094C
:103F280001221A407B699A4013003A6913433B61A6
:103F38007B683A695A603B685B6803221340032B2D
:103F480017D07B68DB683B617B695B0003229A4082
:103F58001300DA433B6913403B613B689A687B690D
:103F68005B009A4013003A6913433B617B683A69E6
:103F7800DA603B685B6803221340022B23D17B691C
:103F8800DA087B6808329200D3583B617B690722C4
:103F980013409B000F229A401300DA433B691340F9
:103FA8003B613B681A697B6907210B409B009A407B
:103FB80013003A6913433B617B69DA087B6808326E
:103FC80092003969D1507B681B683B617B695B0053
:103FD80003229A401300DA433B6913403B613B6874
:103FE8005B6803221A407B695B009A4013003A69B8
:103FF80013433B617B683A691A603B685A68C0237F
:104008009B02134000D192E0504A7B699B08183309
:104018009B009B583B617B6903221340DB000F2206
:104028009A401300DA433B6913403B617A68A02346
:10403800DB059A4213D07B68454A93420DD07B68D2
:10404800444A934207D07B68434A934201D10323F1
:1040580006E0052304E0022302E0012300E0002338
:104068007A6903210A40D20093403A6913433B61BD
:1040780036497B699B0818339B003A695A50334B81
:104088001B683B61FB68DA433B6913403B613B6853
:104098005A6880235B03134003D03A69FB681343D3
:1040A8003B612A4B3A691A60284B5B683B61FB68A5
:1040B800DA433B6913403B613B685A6880239B03A2
:1040C800134003D03A69FB6813433B611F4B3A69BD
:1040D8005A601E4A8423D3583B61FB68DA433B6924
:1040E80013403B613B685A6880239B02134003D00E
:1040F8003A69FB6813433B61144984223B698B503E
:10410800124A8023D3583B61FB68DA433B6913406A
:104118003B613B685A6880235B02134003D03A69CD
:10412800FB6813433B61094980223B698B507B69DB
:1041380001337B613B681A687B69DA40131E00D043
:10414800B0E6C046C046BD4606B080BD0018024075
:104158000004005000080050000C005080B586B0E4
:1041680000AF7860396000237B61B4E001227B698D
:104178009A403B6813403B613B69002B00D1A7E0A4
:104188005A4A7B699B0818339B009B58FB607B69E4
:1041980003221340DB000F229A40FB681340FB60A8
:1041A8007A68A023DB059A4213D07B68504A934271
:1041B8000DD07B684F4A934207D07B684E4A9342A2
:1041C80001D1032306E0052304E0022302E00123D2
:1041D80000E000237A6903210A40D2009340FA687C
:1041E8009A4236D1414A8023D3583A69D2433F494B
:1041F800134080228B503D4A8423D3583A69D243D6
:104208003A49134084228B50384B5A683B69D9434A
:10421800364B0A405A60354B1A683B69D943334BD1
:104228000A401A607B6903221340DB000F229A4080
:104238001300FB602D4A7B699B0818339B009A5832
:10424800FB68D94329487B699B080A4018339B00BF
:104258001A507B681A687B695B00032199400B0040
:104268001A437B681A607B69DA087B680832920017
:10427800D3587A6907210A4092000F2191400A0019
:10428800D1437A69D20819407B6808329200D1502C
:104298007B689B687A695200032191400A00D243E7
:1042A8001A407B689A607B685B6801217A69914053
:1042B8000A00D2431A407B685A607B68DB687A69D7
:1042C8005200032191400A00D2431A407B68DA6009
:1042D8007B6901337B613A687B69DA40131E00D041
:1042E80044E7C046C046BD4606B080BD001802403F
:1042F8000004005000080050000C005080B584B045
:1043080000AF78600A00BB1C1A807B681B69BA1C66
:104318001288134004D00F23FB1801221A7003E0FF
:104328000F23FB1800221A700F23FB181B781800A4
:10433800BD4604B080BD80B582B000AF786008008B
:104348001100BB1C021C1A807B1C0A1C1A707B1CE7
:104358001B78002B04D0BB1C1A887B689A6103E089
:10436800BB1C1A887B689A62C046BD4602B080BDF5
:1043780080B582B000AF78607B68002B01D1012343
:104388008FE07B6841229B5CDBB2002B07D17B6806
:104398004022002199547B681800FEF7D9F87B6801
:1043A8004122242199547B681B681A687B681B6822
:1043B80001218A431A607B685A687B681B683B49FD
:1043C8000A401A617B681B689A687B681B683849D1
:1043D8000A409A607B68DB68012B08D17B689A6881
:1043E8007B681B68802109020A439A6007E07B68A2
:1043F8009A687B681B68842109020A439A607B6873
:10440800DB68022B09D17B681B685A687B681B68CC
:10441800802109010A435A6007E07B681B685A68D3
:104428007B681B6823490A405A607B681B685A6886
:104438007B681B6820490A435A607B681B68DA68F6
:104448007B681B681A490A40DA607B681A697B68CE
:104458005B691A4311007B689B691A027B681B68B9
:104468000A43DA607B68D9697B681A6A7B681B68CB
:104478000A431A607B681B681A687B681B680121FD
:104488000A431A607B6800225A647B684122202113
:1044980099547B6800221A637B6842220021995450
:1044A80000231800BD4602B080BDC046FFFFFFF0E4
:1044B800FF7FFFFFFFF7FFFF0080000280B582B09B
:1044C80000AF78607B68002B01D1012322E07B6874
:1044D8004122242199547B681B681A687B681B68F1
:1044E80001218A431A607B681800FEF793F87B68FD
:1044F80000225A647B684122002199547B6800227B
:104508001A637B684222002199547B68402200216B
:10451800995400231800BD4602B080BD90B589B0FB
:1045280002AFF86008007A6019000A23FB18021C21
:104538001A800823FB180A1C1A80FB6841229B5C1E
:10454800DBB2202B00D00AE1FB6840229B5C012BE8
:1045580001D1022304E1FB68402201219954FEF7AE
:1045680027FB03003B6180231902F8683B6900932D
:104578001923012200F01AFA031E01D00123EFE0EB
:10458800FB68412221219954FB6842221021995449
:10459800FB6800225A64FB687A685A62FB68082242
:1045A800BA1812885A85FB6800225A63FB685B8D2B
:1045B8009BB2FF2B06D9FB68FF221A8580235B0478
:1045C8007B6107E0FB685B8D9AB2FB681A858023E4
:1045D8009B047B61FB681B8D002B27D0FB685B6A03
:1045E8001A78FB681B689A62FB685B6A5A1CFB684E
:1045F8005A62FB685B8D9BB2013B9AB2FB685A8595
:10460800FB681B8D013B9AB2FB681A85FB681B8D02
:10461800DBB20133DAB27C690A23FB181988F8681F
:10462800514B0093230000F09BFB6FE0FB681B8D50
:10463800DAB27C690A23FB181988F8684A4B009398
:10464800230000F08DFB61E03A69B96AFB68180045
:1046580000F004FA031E01D0012381E0FB685B6AC5
:104668001A78FB681B689A62FB685B6A5A1CFB68CD
:104678005A62FB685B8D9BB2013B9AB2FB685A8514
:10468800FB681B8D013B9AB2FB681A85FB685B8D42
:104698009BB2002B3AD0FB681B8D002B36D1BA6A2F
:1046A800F8683B69009313000022802100F07EF92E
:1046B800031E01D0012353E0FB685B8D9BB2FF2BE7
:1046C80011D9FB68FF221A85FB681B8DDAB280239B
:1046D8005C040A23FB181988F86800230093230058
:1046E80000F03EFB12E0FB685B8D9AB2FB681A850E
:1046F800FB681B8DDAB280239C040A23FB181988F7
:10470800F86800230093230000F02AFBFB685B8D08
:104718009BB2002B98D13A69B96AFB68180000F07F
:10472800E3F9031E01D001231AE0FB681B6820226D
:10473800DA61FB681B685A68FB681B680B490A400A
:104748005A60FB68412220219954FB6842220021CB
:104758009954FB68402200219954002300E0022369
:104768001800BD4607B090BD0020008000E800FE9C
:1047780080B58AB002AFF8607A603B600A23FB1804
:104788000A1C1A8000237B61FB6841229B5CDBB218
:10479800202B00D0DFE0FB681B689A6980231B028E
:1047A8001A4080231B029A4201D10223D4E0FB68FD
:1047B80040229B5C012B01D10223CDE0FB68402203
:1047C80001219954FB68412224219954FB68002255
:1047D8005A64FB68DB68012B07D10A23FB181B8886
:1047E8009B059B0D5E4A1A4306E00A23FB181B88AB
:1047F8009B059B0D5B4A1A43FB681B685A60FEF7D2
:10480800D7F90300BB61FB681B689B692022134032
:10481800203B5A425341DAB21F23FB181A70FB6837
:104828001B689B6910221340103B5A425341DAB26D
:104838001E23FB181A7035E03B6801331AD0FEF7C7
:10484800B7F90200BB69D31A3A689A4202D33B68A7
:10485800002B0FD1FB68412220219954FB685B6C27
:1048680020221A43FB685A64FB68402200219954AD
:10487800012371E0FB681B689B6920221340203BE1
:104888005A425341DAB21F23FB181A70FB681B689F
:104898009B6910221340103B5A425341DAB21E233F
:1048A800FB181A701F23FB181B78002B04D11E233A
:1048B800FB181B78002BBFD0FB681B689B69102274
:1048C8001340102B1AD03A68F868BB69009313009C
:1048D8000022202100F06AF8031E01D001233BE0EA
:1048E800FB681B682022DA61FB6841222021995469
:1048F800FB6840220021995400232DE03A68F868AB
:10490800BB69009313000022202100F04FF8031E1A
:1049180001D0012320E0FB681B681022DA61FB68E4
:104928001B682022DA617B6901337B617B697A68C5
:104938009A4200D94DE7FB68412220219954FB682F
:104948005B6C20221A43FB685A64FB6840220021F2
:104958009954012300E002231800BD4608B080BD29
:10496800002000020028000280B582B000AF786005
:104978007B681B689B6902221340022B03D17B686A
:104988001B6800229A627B681B689B69012213409E
:10499800012B07D07B681B689A697B681B6801211B
:1049A8000A439A61C046BD4602B080BD80B584B056
:1049B80000AFF860B9603B60FB1D1A703AE0BA6955
:1049C8003968FB68180000F0D3F8031E01D00123F2
:1049D80040E03B6801332DD0FEF7EAF80200BB69DE
:1049E800D31A3A689A4202D33B68002B22D1FB685B
:1049F8001B689B69BA681340BA68D31A5A42534174
:104A0800DBB21A00FB1D1B789A4213D1FB685B6C62
:104A180020221A43FB685A64FB68412220219954DA
:104A2800FB68422200219954FB68402200219954D6
:104A380001230FE0FB681B689B69BA681340BA68DA
:104A4800D31A5A425341DBB21A00FB1D1B789A4213
:104A5800B5D000231800BD4604B080BD80B584B031
:104A680000AFF860B9607A6032E07A68B968FB68CC
:104A7800180000F07DF8031E01D0012330E0BB6868
:104A8800013325D0FEF794F802007B68D31ABA6880
:104A98009A4202D3BB68002B1AD1FB681B689B693A
:104AA80002221340022B13D0FB685B6C20221A43AE
:104AB800FB685A64FB68412220219954FB68422212
:104AC80000219954FB68402200219954012307E0F2
:104AD800FB681B689B6902221340022BC5D1002387
:104AE8001800BD4604B080BD80B584B000AFF86042
:104AF800B9607A602FE07A68B968FB68180000F03E
:104B080037F8031E01D001232DE0FEF751F802000B
:104B18007B68D31ABA689A4202D3BB68002B1AD1B1
:104B2800FB681B689B6920221340202B13D0FB686D
:104B38005B6C20221A43FB685A64FB6841222021DF
:104B48009954FB68422200219954FB6840220021B5
:104B58009954012307E0FB681B689B6920221340D6
:104B6800202BC8D100231800BD4604B080BD00002A
:104B780080B58AB000AFF860B9607A602723FB1867
:104B880000221A70FB681B689B69BB6100233B62AB
:104B98007B68FB61BB691022134000D179E0FB6898
:104BA8001B681022DA6157E02722BB18BA1812785E
:104BB8001A70BB6801334FD0FDF7FAFF0200FB699A
:104BC800D31ABA689A4202D3BB68002B44D1FB6857
:104BD8001B685A688023DB0113407B6113203B1854
:104BE800FA684221525C1A70FB681B689A69802334
:104BF8001B021A4080231B029A4226D17A6980231D
:104C0800DB019A4221D03B181B78202B1DD0FB6872
:104C18001B685A68FB681B688021C9010A435A60EF
:104C2800FDF7C6FF0300FB610FE0FDF7C1FF0200BF
:104C3800FB69D31A192B08D93B6A202213433B621C
:104C48002723FB1801221A7006E0FB681B689B6982
:104C580020221340202BE8D1FB681B689B69202287
:104C68001340202B04D02723FB181B78002B9BD044
:104C78002723FB181B78002B03D1FB681B68202215
:104C8800DA613B6A042213433B622723FB180122A3
:104C98001A70FB681B689B69BB61BA6980235B005B
:104CA80013400CD03B6A012213433B62FB681B682C
:104CB80080225200DA612723FB1801221A70BA6990
:104CC8008023DB0013400CD03B6A082213433B626D
:104CD800FB681B688022D200DA612723FB180122B7
:104CE8001A70BA6980239B0013400CD03B6A0222D9
:104CF80013433B62FB681B6880229200DA6127231A
:104D0800FB1801221A702723FB181B78002B1DD0D3
:104D1800FB681800FFF728FEFB681B685A68FB68E9
:104D28001B680E490A405A60FB685A6C3B6A1A4372
:104D3800FB685A64FB68412220219954FB6842228F
:104D480000219954FB684022002199542723FB181D
:104D58001B781800BD460AB080BDC04600E800FEBA
:104D680090B587B000AFF860080011007B600A2496
:104D78003B19021C1A8009203B180A1C1A703B199F
:104D88001B889B059A0D3B181B781904FF231B04ED
:104D98000B401A437B681A43BB6A13435B005B08EA
:104DA8007B61FB681B685B68BA6A510D8022D20080
:104DB8000A4007490A43D2431A401100FB681B689E
:104DC8007A690A435A60C046BD4607B090BDC046DE
:104DD800FF63FF0380B582B000AF786039607B68FD
:104DE80041229B5CDBB2202B38D17B6840229B5C44
:104DF800012B01D1022332E07B6840220121995422
:104E08007B684122242199547B681B681A687B6857
:104E18001B6801218A431A607B681B681A687B68D3
:104E28001B6811490A401A607B681B6819687B680F
:104E38001B683A680A431A607B681B681A687B68B3
:104E48001B6801210A431A607B684122202199547A
:104E58007B68402200219954002300E002231800B7
:104E6800BD4602B080BDC046FFEFFFFF80B584B0ED
:104E780000AF786039607B6841229B5CDBB2202BF5
:104E880039D17B6840229B5C012B01D1022333E09E
:104E98007B684022012199547B684122242199543E
:104EA8007B681B681A687B681B6801218A431A6043
:104EB8007B681B681B68FB60FB68114A1340FB603A
:104EC8003B681B02FA681343FB607B681B68FA683F
:104ED8001A607B681B681A687B681B6801210A4393
:104EE8001A607B684122202199547B684022002166
:104EF8009954002300E002231800BD4604B080BD89
:104F0800FFF0FFFF80B584B000AF7860194B1B68D5
:104F1800194A13401900174B7A680A431A607A68CD
:104F280080239B009A421FD1144B1A6813005B0020
:104F38009B185B0012491800FBF7F0F803000133D7
:104F4800FB6008E0FB68002B03D0FB68013BFB60BB
:104F580001E0032309E0074B5A698023DB001A406C
:104F68008023DB009A42EDD000231800BD4604B030
:104F780080BDC04600700040FFF9FFFF140000200C
:104F880040420F0080B500AF034B9A68E023DB0175
:104F980013401800BD4680BD0010024080B582B0A5
:104FA80000AFFDF705FE03007B60354B1A68344BF4
:104FB800802149000A431A6008E0FDF7F9FD020064
:104FC8007B68D31A022B01D9032354E02C4B1A68AF
:104FD8008023DB001340F0D0294B8022D2015A6095
:104FE800FDF7E6FD03007B60254B00229A6009E08F
:104FF800FDF7DEFD02007B68D31A224A934201D9ED
:10500800032338E01E4B9B6838221340F0D11C4B19
:10501800802252001A601A4B802252001A60FDF753
:10502800C7FD03007B6008E0FDF7C2FD02007B6856
:10503800D31A022B01D903231DE0114B1A688023D0
:105048009B041340F0D10E4B80225201DA600C4BC6
:1050580000229A610A4B012252421A620A4B0B4AF9
:105068001A600B4B1B681800FDF746FD031E01D0A4
:10507800012300E000231800BD4602B080BDC046F1
:105088000010024088130000140000200024F400DF
:105098001800002080B588B000AF78607B68002BCE
:1050A80001D10123F3E27B681B680122134000D180
:1050B8007CE0C34B9B6838221340BB61C04BDB6864
:1050C800032213407B61BB69102B02D17B69032B40
:1050D80002D0BB69082B0BD1B94B1A6880239B02FD
:1050E800134062D07B685B68002B5ED10123CEE25F
:1050F8007B685A6880235B029A4207D1B04B1A68D2
:10510800AF4B802149020A431A6020E07B685A6845
:10511800A023DB029A420ED1A94B1A68A84B802122
:10512800C9020A431A60A64B1A68A54B8021490296
:105138000A431A600BE0A24B1A68A14BA1490A4026
:105148001A609F4B1A689E4B9F490A401A607B68F9
:105158005B68002B14D0FDF72BFD03003B6108E0D2
:10516800FDF726FD02003B69D31A642B01D90323FE
:105178008DE2934B1A6880239B021340F0D015E010
:10518800FDF716FD03003B6108E0FDF711FD020085
:105198003B69D31A642B01D9032378E2884B1A6838
:1051A80080239B021340F0D100E0C0467B681B6857
:1051B8000222134000D199E0814B9B6838221340AA
:1051C800BB617F4BDB68032213407B61BB69102BFB
:1051D80002D17B69022B02D0BB69002B35D1784BF9
:1051E8001A688023DB00134005D07B68DB68002B3E
:1051F80001D101234BE2724B5B68744A13401900DA
:105208007B685B691A026E4B0A435A60BB69002BC4
:1052180012D16B4B1B686E4A134019007B681A69E0
:10522800674B0A431A60664B1B68DB0A0722134068
:10523800684ADA40684B1A60684B1B681800FDF72B
:105248005BFC031E51D0012321E27B68DB68002B45
:1052580030D05B4B1B685E4A134019007B681A69A3
:10526800574B0A431A60564B1A68554B8021490020
:105278000A431A60FDF79CFC03003B6108E0FDF758
:1052880097FC02003B69D31A022B01D90323FEE1E4
:105298004B4B1A688023DB001340F0D0484B5B6807
:1052A8004A4A134019007B685B691A02444B0A4357
:1052B8005A601BE0424B1A68414B49490A401A6040
:1052C800FDF776FC03003B6108E0FDF771FC020086
:1052D8003B69D31A022B01D90323D8E1384B1A684A
:1052E8008023DB001340F0D100E0C0467B681B68D8
:1052F8000822134047D0324B9B6838221340182BA2
:105308000AD12F4B1B6E022213403CD07B689B694D
:10531800002B38D10123BAE17B689B69002B19D097
:10532800274B1A6E264B01210A431A66FDF740FCEB
:1053380003003B6108E0FDF73BFC02003B69D31A20
:10534800022B01D90323A2E11D4B1B6E022213403D
:10535800F1D018E01A4B1A6E194B01218A431A66CC
:10536800FDF726FC03003B6108E0FDF721FC020085
:105378003B69D31A022B01D9032388E1104B1B6E1A
:1053880002221340F1D17B681B680422134000D12C
:10539800C6E01F23FB1800221A70094B9B683822AD
:1053A8001340202B1ED1064BDB6D0222134000D187
:1053B800B6E07B689B68002B00D0B1E0012366E172
:1053C80000100240FFFFFEFFFFFFFBFFFF80FFFF13
:1053D800FFC7FFFF0024F40014000020180000207D
:1053E800FFFEFFFFAC4BDA6B80235B05134001D156
:1053F800012300E00023002B11D0A74BDA6BA64B4A
:10540800802149050A43DA63A34BDA6B80235B05E5
:105418001340FB60FB681F23FB1801221A709F4B87
:105428001A6880235B0013401AD19C4B1A689B4B67
:10543800802149000A431A60FDF7BAFB03003B616B
:1054480008E0FDF7B5FB02003B69D31A022B01D92E
:1054580003231CE1914B1A6880235B001340F0D0B2
:105468007B689B68012B06D18B4BDA6D8A4B012137
:105478000A43DA651CE07B689B68052B0CD1864BD8
:10548800DA6D854B04210A43DA65834BDA6D824B6A
:1054980001210A43DA650BE07F4BDA6D7E4B01216F
:1054A8008A43DA657C4BDA6D7B4B04218A43DA65E3
:1054B8007B689B68002B14D0FDF77AFB03003B61E7
:1054C80009E0FDF775FB02003B69D31A744A934261
:1054D80001D90323DBE0704BDB6D02221340F0D0CF
:1054E80013E0FDF765FB03003B6109E0FDF760FB96
:1054F80002003B69D31A6A4A934201D90323C6E0E2
:10550800654BDB6D02221340F0D11F23FB181B787B
:10551800012B05D1604BDA6B5F4B62490A40DA63B5
:105528007B68DB69002B00D1B0E05B4B9B683822BD
:105538001340102B00D178E07B68DB69022B53D134
:10554800554B1A68544B58490A401A60FDF730FB0E
:1055580003003B6108E0FDF72BFB02003B69D31A0F
:10556800022B01D9032392E04B4B1A6880239B043A
:105578001340F0D1484BDB684C4A134019007B6854
:105588001A6A7B685B6A1A437B689B6A1B021A4328
:105598007B68DB6A1A437B681B6B1A433E4B0A43E2
:1055A800DA603D4B1A683C4B802149040A431A6073
:1055B800394BDA68384B802149050A43DA60FDF730
:1055C800F7FA03003B6108E0FDF7F2FA02003B69D5
:1055D800D31A022B01D9032359E02F4B1A688023D1
:1055E8009B041340F0D051E02B4B1A682A4B2E49EC
:1055F8000A401A60FDF7DCFA03003B6108E0FDF79A
:10560800D7FA02003B69D31A022B01D903233EE0E3
:10561800214B1A6880239B041340F0D11E4BDA6893
:105628001D4B23490A40DA6030E07B68DB69012BB7
:1056380001D101232BE0184BDB687B617B690322D6
:105648001A407B681B6A9A421ED17B6970221A40F5
:105658007B685B6A9A4217D17A69FE23DB011A409C
:105668007B689B6A1B029A420ED17A69F8239B03D6
:105678001A407B68DB6A9A4206D17B695B0F5A073E
:105688007B681B6B9A4201D0012300E000231800BD
:10569800BD4608B080BDC046001002400070004002
:1056A80088130000FFFFFFEFFFFFFFFE8C80C11F84
:1056B800FCFFFEEF80B584B000AF786039607B688E
:1056C800002B01D10123E9E0764B1B680722134028
:1056D8003A689A421ED9734B1B68072293431900F4
:1056E800704B3A680A431A60FDF762FA0300FB60E0
:1056F80009E0FDF75DFA0200FB68D31A6A4A934293
:1057080001D90323CAE0674B1B68072213403A6894
:105718009A42EED17B681B680222134015D07B6841
:105728001B680422134006D0604B9A685F4BE02147
:10573800C9010A439A605D4B9B685D4A1340190092
:105748007B689A68594B0A439A607B681B680122F8
:10575800134057D07B685B68012B07D1534B1A68FD
:1057680080239B0213402BD1012397E07B685B6861
:10577800022B07D14D4B1A6880239B0413401FD17D
:1057880001238BE07B685B68002B07D1474B1A68C5
:105798008023DB00134013D101237FE07B685B6823
:1057A800032B06D1414B1B6E0222134008D1012363
:1057B80074E03E4BDB6D0222134001D101236DE002
:1057C8003A4B9B680722934319007B685A68374B0A
:1057D8000A439A60FDF7ECF90300FB6009E0FDF766
:1057E800E7F90200FB68D31A2F4A934201D9032331
:1057F80054E02E4B9B6838221A407B685B68DB00BC
:105808009A42ECD1274B1B68072213403A689A4208
:105818001ED2244B1B68072293431900214B3A6878
:105828000A431A60FDF7C4F90300FB6009E0FDF7BD
:10583800BFF90200FB68D31A1B4A934201D903231C
:105848002CE0184B1B68072213403A689A42EED1A5
:105858007B681B680422134009D0144B9B68154AC7
:10586800134019007B68DA68104B0A439A6000F00D
:1058780029F801000D4B9B681B0A0F221A400E4B9A
:105888009200D3581F2213400A00DA400B4B1A60CB
:105898000B4B1B681800FDF72FF903001800BD46D5
:1058A80004B080BD002002408813000000100240B0
:1058B800FFF0FFFFFF8FFFFF9896000814000020FD
:1058C8001800002080B586B000AF3C4B9B6838229A
:1058D80013400FD1394B1B68DB0A07221340012202
:1058E8009A4013003B6039683548FAF717FC030003
:1058F8003B615DE0314B9B6838221340082B02D195
:10590800304B3B6154E02D4B9B6838221340102BE1
:1059180038D12A4BDB6803221340FB60274BDB6836
:105928001B09072213400133BB60FB68032B0DD111
:10593800B9682448FAF7F2FB030019001F4BDB682B
:105948001B0A7F2213404B437B610DE0B9681C485A
:10595800FAF7E4FB03001900184BDB681B0A7F22E7
:1059680013404B437B61C046144BDB685B0F072237
:10597800134001337B6079687869FAF7CFFB03003D
:105988003B6115E00D4B9B6838221340202B03D157
:1059980080231B023B610BE0084B9B6838221340B5
:1059A800182B03D1FA23DB013B6101E000233B61A3
:1059B8003B691800BD4606B080BDC04600100240D5
:1059C8000024F40000127A0080B500AF024B1B6877
:1059D8001800BD4680BDC04614000020B0B500AF19
:1059E800FFF7F2FF0400FFF7CDFA03001A0B054B8F
:1059F8009200D3581F221340DC4023001800BD46F4
:105A0800B0BDC046D896000880B586B000AF7860B3
:105A18001323FB1800221A701223FB1800221A7095
:105A28007B681A6880239B02134000D1A3E01120F1
:105A38003B1800221A70864BDA6B80235B051340F3
:105A480010D1834BDA6B824B802149050A43DA6314
:105A58007F4BDA6B80235B051340BB60BB683B1848
:105A680001221A707B4B1A687A4B802149000A433D
:105A78001A60FDF79DF80300FB600BE0FDF798F84E
:105A88000200FB68D31A022B04D91323FB18032244
:105A98001A7005E06F4B1A6880235B001340EDD045
:105AA8001323FB181B78002B54D1694BDA6DC023E4
:105AB8009B0013407B617B69002B19D07B689B6935
:105AC8007A699A4214D0624BDB6D634A13407B615A
