:020000040800F2
:10000000009000208D310008A9300008AF300008B2
:1000100000000000000000000000000000000000E0
:10002000000000000000000000000000B5300008E3
:100030000000000000000000BF300008C9300008C8
:10004000DD31000800000000DD310008D730000875
:10005000DD310008DD310008DD310008DD31000848
:1000600000000000E5300008DD310008DD31000847
:10007000DD310008DD310008DD310008000000003E
:10008000DD310008DD310008DD310008DD31000818
:10009000DD310008DD310008DD310008DD31000808
:1000A000DD310008DD310008DD310008DD310008F8
:0800B000DD310008FD300008FD
:1000B80010B5064C2378002B07D1054B002B02D036
:1000C800044800E000BF0123237010BD1001002088
:1000D800000000003C920008044B10B5002B03D030
:1000E8000349044800E000BF10BDC04600000000FE
:1000F800140100203C9200080023C25C0133002A4E
:10010800FBD1581E7047000003B4714649084000EF
:100118004900095E49008E4403BC70470022430829
:100128008B4274D303098B425FD3030A8B4244D3B7
:10013800030B8B4228D3030C8B420DD3FF220902F9
:1001480012BA030C8B4202D31212090265D0030BB8
:100158008B4219D300E0090AC30B8B4201D3CB03AE
:10016800C01A5241830B8B4201D38B03C01A5241F0
:10017800430B8B4201D34B03C01A5241030B8B42F2
:1001880001D30B03C01A5241C30A8B4201D3CB02DD
:10019800C01A5241830A8B4201D38B02C01A5241C2
:1001A800430A8B4201D34B02C01A5241030A8B42C5
:1001B80001D30B02C01A5241CDD2C3098B4201D3DD
:1001C800CB01C01A524183098B4201D38B01C01A5B
:1001D800524143098B4201D34B01C01A52410309D2
:1001E8008B4201D30B01C01A5241C3088B4201D381
:1001F800CB00C01A524183088B4201D38B00C01A2E
:10020800524143088B4201D34B00C01A5241411A54
:1002180000D20146524110467047FFE701B5002061
:1002280000F0F0F802BDC0460029F7D076E7704725
:1002380003460B437FD4002243088B4274D303093F
:100248008B425FD3030A8B4244D3030B8B4228D3E0
:10025800030C8B420DD3FF22090212BA030C8B4206
:1002680002D31212090265D0030B8B4219D300E0A6
:10027800090AC30B8B4201D3CB03C01A5241830B2B
:100288008B4201D38B03C01A5241430B8B4201D3DB
:100298004B03C01A5241030B8B4201D30B03C01A04
:1002A8005241C30A8B4201D3CB02C01A5241830A7E
:1002B8008B4201D38B02C01A5241430A8B4201D3AD
:1002C8004B02C01A5241030A8B4201D30B02C01AD7
:1002D8005241CDD2C3098B4201D3CB01C01A52413E
:1002E80083098B4201D38B01C01A524143098B42C7
:1002F80001D34B01C01A524103098B4201D30B01B0
:10030800C01A5241C3088B4201D3CB00C01A5241D4
:1003180083088B4201D38B00C01A524143088B4299
:1003280001D34B00C01A5241411A00D20146524132
:10033800104670475DE0CA0F00D04942031000D351
:100348004042534000229C4603098B422DD3030AA6
:100358008B4212D3FC22890112BA030A8B420CD3B6
:10036800890192118B4208D3890192118B4204D3DF
:1003780089013AD0921100E08909C3098B4201D35F
:10038800CB01C01A524183098B4201D38B01C01A99
:10039800524143098B4201D34B01C01A5241030910
:1003A8008B4201D30B01C01A5241C3088B4201D3BF
:1003B800CB00C01A524183088B4201D38B00C01A6C
:1003C8005241D9D243088B4201D34B00C01A524143
:1003D800411A00D20146634652415B10104601D3D0
:1003E8004042002B00D54942704763465B1000D35A
:1003F800404201B5002000F005F802BD0029F8D000
:1004080016E770477047C04690B587B002AF020044
:10041800FB1D1A700F243A19F91D0648642300932E
:10042800012306F0F7FA3B191B781800BD4605B002
:1004380090BDC046DC02002080B582B000AF00232A
:100448007B60012002F07AFF134B00220121180083
:1004580004F01BFB0520FFF7D7FFA520FFF7D4FF0B
:10046800030019000D4B2C229954012002F066FF5D
:100478007B6801337B60094B2C229B5C1A000123AB
:100488001340EAD1044B01220121180004F0FDFABF
:10049800C046BD4602B080BD0004005030010020B7
:1004A80080B500AF084B00220121180004F0EDFAD6
:1004B8000620FFF7A9FF044B01220121180004F0D0
:1004C800E4FAC046BD4680BD0004005080B500AFC8
:1004D800084B00220121180004F0D7FA0420FFF786
:1004E80093FF044B01220121180004F0CEFAC04604
:1004F800BD4680BD0004005090B5C9B000AFF8609B
:10050800B9604A4B902464001B19DB191A70FFF775
:1005180093FFFFF7C5FF464B1B19DB1900221A6032
:100528000433FC220021180008F019FA414B20007E
:100538001B18DB19404A12881A800222002199549C
:10054800FB681B0CDAB23B4B1B18DB191A70FB68F3
:100558001B0ADAB2374B1B18DB195A70FB68DAB280
:10056800344B1B18DB199A7000238E225200BA18DC
:10057800136015E0BB6819782D4B902252009B1828
:10058800DA198E2040003B181B68D3180A1C1A7011
:10059800BB680133BB603B181B6801333A18136012
:1005A8008E235B00FB181B68FF2BE3DD234B002227
:1005B8000121180004F069FA0220FFF725FF002343
:1005C8008C225200BA18136012E01A4B9022520083
:1005D8009B18DA198C2464003B191B68D3181B7804
:1005E8001800FFF711FF3B191B6801333A19136014
:1005F8008C235B00FB181B68022BE6DD01235B42A2
:1006080080225200182179180D4805F05FFF0B4B26
:1006180001220121180004F038FAFFF70DFFFFF757
:1006280055FFC046BD4649B090BDC046E7FEFFFF36
:10063800F8FEFFFFF4FEFFFF689200080004005078
:10064800DC020020B0B584B000AF78603960FFF7F5
:10065800F3FE08203B18274A12881A80022200213C
:1006680099540B23FB1800221A707B681B0C5AB292
:100678003B181A707B681B0A5AB23B185A707B6881
:100688005AB23B189A701C4B00220121180004F042
:10069800FCF90B20FFF7B8FE0023FB600CE00823F1
:1006A800FA18FB68D3181B785BB2DBB21800FFF7A7
:1006B800ABFEFB680133FB60FB68022BEFDDA52076
:1006C800FFF7A2FE0B257C1901235B428022520012
:1006D80039680A4806F052F803002370064B0122D5
:1006E8000121180004F0D1F97B191B781800BD46C8
:1006F80004B0B0BD6892000800040050DC0200207D
:1007080080B582B000AFFFF7CBFEFB1DC7221A7081
:100718000B4B00220121180004F0B7F9FB1D1B78D0
:100728001800FFF771FE064B01220121180004F0A2
:10073800ACF9FFF781FEC046BD4602B080BDC04699
:100748000004005090B587B000AF78600C243B19C6
:1007580000221A6000237B61344B180001F02EFB45
:100768007B6801331B7819007B6802331B781A00F9
:100778002F4B180001F022FB7B681B7801333B618B
:100788007B6805331B781B067A6913437B617B689A
:1007980004331B781B047A6913437B617B6803333A
:1007A8001B781B027A6913437B617B6802331B78D1
:1007B8001A007B6913437B613B69191F7A697B685F
:1007C800180000F04BFE031E25D11A4B180001F04B
:1007D800F5FA012000F0E8FE00F026FF03001A00F9
:1007E8003B19DA703B19DB7819003B19DB781A00E2
:1007F800114B180001F0E2FA3B1918221A703B1944
:1008080066225A703B1913229A703B19042118006A
:1008180000F010FE05E0094B180001F0CFFA00F0D7
:10082800E7FEC046BD4607B090BDC0466C920008C2
:100838008492000898920008AC920008C0920008C0
:1008480080B586B000AF7860344B180001F0B6FA76
:1008580000233B617B681B780133FB607B680533B1
:100868001B781B063A6913433B617B6804331B788A
:100878001B043A6913433B617B6803331B781B02F3
:100888003A6913433B617B6802331B781A003B6962
:1008980013433B61FB68191F3A697B68180000F035
:1008A800DDFD031E2FD11E4B180001F087FA1D4BEA
:1008B8001800FFF721FC0300DBB2180000F074FEFB
:1008C800184B1800FFF718FC0200164B110018000F
:1008D80000F0B0FD00237B610CE0124A7B69D3185D
:1008E8001B781A00104B1100180001F067FA7B6999
:1008F80001337B610B4B1800FFF7FEFB02007B699D
:100908009A42EAD805E0094B180001F057FA00F0BE
:100918006FFEC046BD4606B080BDC046D0920008F6
:100928009892000808000020E8920008F092000859
:10093800F0B589B000AF78600C257B1900221A60E9
:1009480000221A710023FB611A243B1900221A8025
:10095800354B180001F032FA7B681B7801337B6154
:100968007B6805331B781B06FA691343FB617B68B8
:1009780004331B781B04FA691343FB617B68033358
:100988001B781B02FA691343FB617B6802331B78EF
:100998001A00FB691343FB617B69191FFA697B68BD
:1009A800180000F05BFD031E33D1204B180001F046
:1009B80005FA022000F0F8FD26003C1900F03AFE86
:1009C8000300238034003B191B88DAB27B19DA70E4
:1009D8003B191B881B0A9BB2DAB22C003B191A710F
:1009E8003B1918221A703B1966225A703B191322B8
:1009F8009A703B19DB7819003B19DB781A000C4B0D
:100A0800180001F0DBF93B190521180000F012FD70
:100A180005E0084B180001F0D1F900F0E9FDC046E7
:100A2800BD4609B0F0BDC046009300081893000801
:100A38002C930008C092000890B58BB000AF786086
:100A480000237B6210243B195E4A1A600C23FB18B2
:100A58005D4A1A6000233B625C4B180001F0AEF956
:100A68007B681B780133FB61FB69013B7A68D3180B
:100A78001B781B063A6A13433B62FB69023B7A68A0
:100A8800D3181B781B043A6A13433B62FB69033B88
:100A98007A68D3181B781B023A6A13433B62FB69D6
:100AA800043B7A68D3181B781A003B6A13433B62ED
:100AB800FB69191F3A6A7B68180000F0CFFC031E17
:100AC80076D1434B180001F079F9012000F06CFD54
:100AD8007B6802331B781A007B6A13437B627B684E
:100AE80003331B781B027A6A13437B627B680433E7
:100AF8001B781B047A6A13437B627B6805331B7877
:100B08001B067A6A13437B627A6A324B110018001B
:100B180001F054F97B6A180000F0B2FD031E3CD1C5
:100B28003B190421180000F085FC2B4B180001F03C
:100B380045F92A4B7A6A9A60294B00221A60284B99
:100B480000225A60264B00229A60264B180004F0B7
:100B58004FF8254B180002F061FA244B180002F0F8
:100B68005DFA80239B01224A1900100003F0A0FEC1
:100B7800204B180002F0B4FF1F4B180002F078FD5C
:100B880004F082FD02F048FB7B6A04331B68BB61FA
:100B9800BB697B617B69984710E0184B180001F02E
:100BA8000DF90C23FB180421180000F043FC05E0A4
:100BB800134B180001F002F900F01AFDC046BD46BB
:100BC8000BB090BD18661300186613013C9300081B
:100BD80018930008589300086893000800ED00E097
:100BE80010E000E08802002040030020D403002029
:100BF8000008005068040020640200207C9300086C
:100C0800C092000890B587B000AF78600C243B19FB
:100C180000221A6000237B613B4B180001F0CEF8DC
:100C28007B681B7801333B613B69013B7A68D318C9
:100C38001B781B067A6913437B613B69023B7A6820
:100C4800D3181B781B047A6913437B613B69033B08
:100C58007A68D3181B781B027A6913437B613B6956
:100C6800043B7A68D3181B781A007B6913437B61AD
:100C78003B69191F7A697B68180000F0EFFB031EB7
:100C880037D1224B180001F099F8012000F08CFCB4
:100C98007B6802331B7819007B6803331B781A00C2
:100CA8001B4B180001F08AF87B6802331A787B68BE
:100CB80003331B781900100000F0F8FC03001A0039
:100CC8003B19DA703B19DB781A00124B1100180037
:100CD80001F074F83B1918221A703B1966225A70F1
:100CE8003B1913229A703B190421180000F0A2FB4B
:100CF80005E0094B180001F061F800F079FCC046E6
:100D0800BD4607B090BDC04690930008AC9300085C
:100D1800C0930008EC93000808940008B0B588B0A8
:100D280000AF78601F23FB1800221A7008243B19B3
:100D380000221A601E203B1800221A701D217B1801
:100D480000221A700023BB617B187A6812781A7027
:100D580000237B6113257B197A6892791A707B6866
:100D680002331B781A00BB691343BB617B680333EA
:100D78001B781B02BA691343BB617B6804331B7879
:100D88001B04BA691343BB617B6805331B781B06D8
:100D9800BA691343BB617B181B787A68D2183B1871
:100DA80012781A70454B180001F008F87B681B7818
:100DB8000133FB60FB68013B7A68D3181B781B067C
:100DC8007A6913437B61FB68023B7A68D3181B7806
:100DD8001B047A6913437B61FB68033B7A68D31869
:100DE8001B781B027A6913437B61FB68043B7A68B2
:100DF800D3181B781A007B6913437B61FB68191FA2
:100E08007A697B68180000F029FB031E4DD12C4B32
:100E1800180000F0D3FF012000F0C6FBBA69294B87
:100E28001100180000F0CAFFBB69180000F028FC88
:100E3800031E23D1244B180000F0C0FF7B68D81D87
:100E48007B191A78BB69190000F0A0FC03001A008E
:100E580021007B18DA707B1818221A707B1866221A
:100E68005A707B1813229A707B180421180000F01E
:100E7800E1FA2021002001F05BFD1AE0134B180075
:100E880000F09CFF08217B180122DA707B181822D9
:100E98001A707B1866225A707B1813229A707B1876
:100EA8000421180000F0C6FA03E0094B180000F00E
:100EB80085FFC046BD4608B0B0BDC04618940008BE
:100EC8003494000848940008649400088494000846
:100ED8000894000890B587B000AF78600F243B19DC
:100EE80000221A7000237B612C4B180000F066FF6B
:100EF8007B681B7801333B617B6805331B781B06D5
:100F08007A6913437B617B6804331B781B047A6915
:100F180013437B617B6803331B781B027A69134395
:100F28007B617B6802331B781A007B6913437B6102
:100F38003B69191F7A697B68180000F08FFA031E55
:100F480022D1174B180000F039FF012000F02CFBCC
:100F58007B68023318787B6803331B7800221900FA
:100F680000F072FE03001A003B191A703B191B7837
:100F78001A000C4B1100180000F020FF3B1901214A
:100F8800180000F057FA05E0074B180000F016FFAC
:100F980000F02EFBC046BD4607B090BDA4940008E3
:100FA80034940008D09400080894000890B587B0DD
:100FB80000AF786000237B610C243B19264A1A6035
:100FC8007B681B7801333B613B69013B7A68D31826
:100FD8001B781B067A6913437B613B69023B7A687D
:100FE800D3181B781B047A6913437B613B69033B65
:100FF8007A68D3181B781B027A6913437B613B69B3
:10100800043B7A68D3181B781A007B6913437B6109
:101018003B69191F7A697B68180000F01FFA031EE4
:1010280010D10E4B180000F0C9FE012000F0BCFAE8
:101038000B4B180000F0C2FE3B190421180000F009
:10104800F9F905E0074B180000F0B8FE00F0D0FAF7
:10105800C046BD4607B090BD186613201893000817
:10106800DC940008C092000890B587B000AF7860A3
:101078000C243B1900221A6000237B613C4B1800AA
:1010880000F09CFE7B681B7801333B617B6805336D
:101098001B781B067A6913437B617B6804331B78D2
:1010A8001B047A6913437B617B6803331B781B023B
:1010B8007A6913437B617B6802331B781A007B696A
:1010C80013437B613B69191F7A697B68180000F03C
:1010D800C5F9031E42D1274B180000F06FFE01200E
:1010E80000F062FA3B192022DA70234B180000F056
:1010F80065FE3B1918221A703B1966225A703B1973
:1011080013229A703B190421180000F093F91B4B25
:1011180000221A6017E080235A00194B002118009A
:1011280007F01DFC154B1B68154A11001800FFF746
:1011380089FA134B1800FFF7F1FD104B1B685A1C76
:10114800FF320E4B1A600E4B1B78FF2BE3D10D4B71
:10115800180000F033FEFFF7D3FA05E00A4B180039
:1011680000F02CFE00F044FAC046BD4607B090BD22
:10117800FC94000898920008189500086002002066
:10118800600100202C950008C0920008B0B588B016
:1011980000AF78601F23FB1800221A7008243B193F
:1011A80000221A601E203B1800221A701D217B188D
:1011B80000221A700023BB617B187A6812781A70B3
:1011C80000237B6113257B197A6892791A707B68F2
:1011D80002331B781A00BB691343BB617B68033376
:1011E8001B781B02BA691343BB617B6804331B7805
:1011F8001B04BA691343BB617B6805331B781B0664
:10120800BA691343BB617B181B787A68D2183B18FC
:1012180012781A704C4B180000F0D0FD7B681B78D0
:101228000133FB60FB68013B7A68D3181B781B0607
:101238007A6913437B61FB68023B7A68D3181B7891
:101248001B047A6913437B61FB68033B7A68D318F4
:101258001B781B027A6913437B61FB68043B7A683D
:10126800D3181B781A007B6913437B61FB68191F2D
:101278007A697B68180000F0F1F8031E5BD1334BE4
:10128800180000F09BFD012000F08EF9BA69304B80
:101298001100180000F092FD80235A002D4B002108
:1012A800180007F05CFBBB69180000F0E9F9031EA1
:1012B8002AD1294B180000F081FDFFF7F1F87B19BE
:1012C8001A787B681100180000F0A4FC03001A00CB
:1012D8003B19DA70FFF7FAF81E4B19000020FFF7E8
:1012E800B1F93B1918221A703B1966225A703B193A
:1012F80013229A703B190421180000F09BF8202152
:10130800002001F015FB1AE0144B180000F056FD00
:1013180008217B180122DA707B1818221A707B18B2
:1013280066225A707B1813229A707B1804211800C1
:1013380000F080F803E00A4B180000F03FFDC046BB
:10134800BD4608B0B0BDC0461894000834940008E3
:101358004894000860010020649400088494000800
:101368000894000890B587B000AF78600F243B1947
:1013780000221A7000237B612A4B180000F01EFD22
:101388007B681B7801333B617B6805331B781B0640
:101398007A6913437B617B6804331B781B047A6981
:1013A80013437B617B6803331B781B027A69134301
:1013B8007B617B6802331B781A007B6913437B616E
:1013C8003B69191F7A697B68180000F047F8031E0B
:1013D8001DD1154B180000F0F1FC012000F0E4F8D5
:1013E80001220021002000F02FFC03001A003B1905
:1013F8001A703B191B781A000C4B1100180000F0EA
:10140800DDFC3B190121180000F014F805E0084B39
:10141800180000F0D3FC00F0EBF8C046BD4607B05A
:1014280090BDC0463C95000834940008D09400084C
:101438000894000880B582B000AF786039603B68D6
:101448009AB201235B427968034805F0DFFEC04683
:10145800BD4602B080BDC046D403002080B588B028
:1014680000AFF860B9607A60FF23FB6100237B61FD
:101478000023BB6110E0FA68BB69D3181B787B6155
:101488001423F918104B0122180002F022F9030066
:10149800FB61BB690133BB61BA69BB689A42EAD395
:1014A800094B1B689A68084B1B6801210A439A601C
:1014B800FA697B689A4201D1002300E001231800F1
:1014C800BD4608B080BDC0466402002090B587B014
:1014D80000AF78600C243B1900221A6000237B615E
:1014E8002D4B180000F06AFC7B681B7801333B61C8
:1014F8007B6805331B781B067A6913437B617B681D
:1015080004331B781B047A6913437B617B680333BC
:101518001B781B027A6913437B617B6802331B7853
:101528001A007B6913437B613B69191F7A697B68E1
:101538001800FFF793FF031E23D1184B180000F083
:101548003DFC012000F030F800F086F803001A0096
:1015580021007B18DA707B1818221A707B18662213
:101568005A707B1813229A700C007A180C4B1100D1
:10157800180000F023FC3B1904211800FFF75AFF5C
:1015880005E0084B180000F019FC00F031F8C046DF
:10159800BD4607B090BDC046689500088495000810
:1015A800989500080894000880B584B000AF020040
:1015B800FB1D1A7008217B1818221A707B186622E6
:1015C8005A707B1813229A707B18A522DA707B1840
:1015D800FA1D12781A7101235B4279180348052213
:1015E80005F014FEC046BD4604B080BDD4030020FB
:1015F80080B582B000AF3B1D18221A703B1D6622D1
:101608005A703B1D13229A703B1D7F22DA7001230A
:101618005B42391D0348042205F0F8FDC046BD466B
:1016280002B080BDD403002080B500AF102318009D
:10163800BD4680BD80B582B000AF064B1B689AB22C
:10164800BB1D1205120D1A80BB1D1B881800BD4654
:1016580002B080BD0058014080B582B000AFFB1DCC
:1016680000221A70054B3B603B681A68FB1D1A7014
:10167800FB1D1B781800BD4602B080BD0078FF1F17
:1016880080B582B000AF78607A6880231B059A42E3
:1016980005D37B68044A934201D8002300E0012364
:1016A8001800BD4602B080BDFFFF0108F0B589B043
:1016B80000AF0200FB1D1A70BB1D0A1C1A700C2318
:1016C800FB18180010231A00002107F048F900231E
:1016D800BB601F23FB1800221A70FB1D1B783F2BD1
:1016E80001D904234AE0FB1D1B783F2B03D9FB1DBE
:1016F8001B78FF2B41D1FB1D1B78FF2B1BD10C2422
:101708003B1902221A601F4B1B689A02FF239B0297
:10171800134019001C48FEF701FD03001A003B198D
:101728009A60184B1B689A02FF239B021340DA0A3F
:101738003B19DA600BE00C217B1802221A60FB1DB2
:101748001A787B189A60BB1D1A787B18DA600C250A
:101758007B1904225A6002F0AFFD1F26BC1908232A
:10176800FA187B191100180002F09AFE0300237082
:1017780002F0C6FDBB191B7800E004231800BD4623
:1017880009B0F0BDE075FF1FFFEF0000F0B5B7B07E
:1017980000AFBC2308241B19DB191860B8230820E4
:1017A8001B18DB191960B42308215B18DB191A60B0
:1017B8001B23B0229B180822BA189A180123137009
:1017C80002F09EFD0023CC2208215218D219136082
:1017D80007E202F071FD00220023C021082008184A
:1017E800C01902604360CC231E0008229B18DA1936
:1017F8001368DA1DBC200823C318DC1923689B185A
:101808001B78A02208201018C41923600023A424E0
:1018180008202018C41923600823D318DA1913687C
:101828001B069C2208201218D21913600023982244
:1018380008201018C41923600D000823CB18DC19E0
:10184800236808215218D2191168526808001843F1
:101858003864C4240823E318DB191B681A437A6424
:101868003B6C7C6C290008228A18D21913605460DA
:1018780033001E0008229B18DA1913689A1DBC2031
:101888000823C318DB191B689B181B7890220820B3
:101898001018C5192B600023942508202818C5198D
:1018A8002B600823D318DA1913681B048C2208202C
:1018B8001218D21913600023882208201018C5199D
:1018C8002B600D000823CB18DB191B680821521860
:1018D800D2191168526808001843B863C424082351
:1018E800E318DB191B681A43FA63BB6BFC6B29000E
:1018F80008228A18D2191360546033001E00082287
:101908009B18DA1913685A1DBC200823C318D81964
:1019180003689B181B78802208201018C5192B60B3
:101928000023842508202818C5192B600823D318FC
:10193800DA1913681B028422BA1813600023802264
:10194800BA1813600D000823CB18DA19136880221F
:10195800BA1811685268080018433863C424082369
:10196800E318D81903681A437A633B6B7C6B290028
:1019780008228A18D2191360546033001E00082206
:101988009B18DA1913681A1DBC200823C318D81924
:1019980003689B181B78BB670023FB67BB6F1B00A2
:1019A8007B6700233B670D000823CB18DA191368FF
:1019B800396F7A6F08001843B862C4240823E31803
:1019C800D81903681A43FA62BB6AFC6A290008221C
:1019D8008A18D2191360546033001E0008229B181D
:1019E800DA191368DA1CBC200823C318D81903684D
:1019F8009B181B78BB660023FB66BB6EFC6E1A0047
:101A0800120A7A661B063B660D000823CB18DA1902
:101A18001368396E7A6E080018433862C4240823A4
:101A2800E318DB191B681A437A623B6A7C6A280050
:101A380008228218D2191360546033001E0008224D
:101A48009B18DA1913689A1CBC210823CB18DB19D8
:101A58001B689B181B78BB650023FB65B96DFA6D85
:101A68000B001B0C10000004AC2408256519ED19A7
:101A7800286008202018C019006818430823E318B4
:101A8800DB1918600B001B04A82208215118CC1977
:101A98002360C02005000823C318D9190B68082142
:101AA8005218D2191168526808001843B861C42442
:101AB8000823E318DC1923681A43FA61BB69FC6937
:101AC800280008228218D2191360546033001E00BF
:101AD80008229B18DA1913685A1CBC210D00082328
:101AE800CB18D9190B689B181B783B6500237B65BD
:101AF800396D7A6D0B001B0E100000027860786853
:101B0800184378600B001B023B60C0200823C318F1
:101B1800DA1913683A6813433B61C4240823E318AD
:101B2800DA1913687A6813437B613B697C69082278
:101B38008218D2191360546029000823CB18D919C8
:101B48000A6833001E0008215B18D9190B68D318DE
:101B58001B78BB640023FB6405000823C318D9194C
:101B68000B68B96CFA6C08001843B860C4240823E1
:101B7800E318DC1923681A43FA60BB68FC6828007C
:101B880008228218D1190B604C60B8210823CB18A1
:101B9800D9190A6833001D0008215B18D9190B6888
:101BA800D1181B23B0241C1908239C46BC44644448
:101BB8000823C318D81902684368012002F09CFA68
:101BC80003002370032001F0B9FB02F099FB2A00FF
:101BD8000823D318DB191B68083308215218D219B7
:101BE8001360CC2308229B18DB191A68B423082138
:101BF8005B18DB191B689A4200D2EAE51B23B02266
:101C08009B1808229446BC4463441B781800BD46C0
:101C180037B0F0BD80B582B000AF78603960094B4D
:101C28001B683A68D2B279681800FEF765FC054B64
:101C38001B685A1CFF32034B1A6000231800BD466C
:101C480002B080BD6002002090B585B000AF0400EE
:101C580008001100FB1D221C1A70BB1D021C1A7003
:101C68007B1D0A1C1A70414BFB607B1D1B78002BE7
:101C780020D002F061FBC0463D4B1A6980235B020D
:101C88001340F9D1FB681B68FF2212041A43FB6852
:101C98001A60FB681B6802221A43FB681A60C04678
:101CA800334B1A6980235B021340F9D102F06CFBB5
:101CB800002357E0BB1D1B78012B21D102F03CFB10
:101CC800C0462B4B1A6980235B021340F9D1FB688D
:101CD8001B68FA1D12781204D2431A40FB681A6076
:101CE800FB681B6802221A43FB681A60C046204B37
:101CF8001A6980235B021340F9D102F045FB30E0FA
:101D0800BB1D1B78022B2CD102F016FBC046184BCA
:101D18001A6980235B021340F9D1FB681B68154AD6
:101D28001A40FB681A60FB681B68FA1D12781204D7
:101D38001A43FB681A60FB681B68FF2212021A43E9
:101D4800FB681A60FB681B6802221A43FB681A606A
:101D5800C046074B1A6980235B021340F9D102F091
:101D680013FB00231800BD4605B090BD143C02408B
:101D780000200240FFFF00FF80B582B000AF78600E
:101D88000A00BB1C1A807B681B68084A934209D169
:101D9800074B01221A70BB1C1A880649064B18000B
:101DA80006F0D4FDC046BD4602B080BD00480040E4
:101DB8005C0D0020C40400208C0500200FB480B501
:101DC8009AB000AF3B1D00221A6004336022002144
:101DD800180006F0C4FD7423FB183B603A68396F9D
:101DE8003B1D180006F0DAFD0021002000F0A0FDE0
:101DF80007493B1D0122180000F034FE00F0DCFC0E
:101E0800C046BD461AB080BC08BC04B01847C046DE
:101E18000000002080B584B000AF264B1800FFF703
:101E2800CDFF254B1B68FB60FA68244B1100180096
:101E3800FFF7C4FF224B1B68BB60BA68214B110037
:101E48001800FFF7BBFF204B1B4A9A601F4B00226C
:101E58001A601E4B00225A601C4B00229A601C4BD1
:101E6800180002F0C5FE1B4B180001F0D7F88023BC
:101E78009B01194A1900100002F01AFD174B1800AF
:101E880001F0CCF8164B180001F02AFE154B18008B
:101E980001F0EEFB03F0F8FB01F0BEF9084B1B68FC
:101EA800BB60BB687B607B689847C046BD4604B092
:101EB80080BDC046A895000800100108D09500080C
:101EC80004100108E495000800ED00E010E000E0CF
:101ED80088020020D403002000080050400300209E
:101EE800680400206402002080B500AF01F074F996
:101EF80000F082F900F01CFB00F0FCFA00F078FA20
:101F080000F0D4F900F0F6F900F0C0FA00F032FA67
:101F180000F08EFBAD49AE4BC822180006F026FC37
:101F2800AC4B1B681A68AB4B1B6804218A431A60C8
:101F38002021002000F0FCFCA749A84B0122180032
:101F480000F090FD00F038FCA54B1B78012B00D069
:101F580019E19E4B5B78513B0E2B00D90CE19A009E
:101F6800A04BD3181B689F46984B1800FEF7EAFB56
:101F78009649974BC822180006F0F8FB954B1B684A
:101F88001A68944B1B6804218A431A60944B0022F8
:101F98001A70F2E08D4B1800FEF752FC8B498C4BFF
:101FA800C822180006F0E2FB8A4B1B681A68894BA6
:101FB8001B6804218A431A60894B00221A70DCE0EE
:101FC800824B1800FEF7B4FC8049814BC8221800E8
:101FD80006F0CCFB7F4B1B681A687E4B1B680421FC
:101FE8008A431A607E4B00221A70C6E0774B1800AD
:101FF800FFF76CFA7549764BC822180006F0B6FB55
:10200800744B1B681A68734B1B6804218A431A6057
:10201800734B00221A70B0E06C4B1800FEF70CFDF1
:102028006A496B4BC822180006F0A0FB694B1B6875
:102038001A68684B1B6804218A431A60684B00229F
:102048001A709AE0614B1800FEF7DCFD5F49604B9F
:10205800C822180006F08AFB5E4B1B681A685D4BA5
:102068001B6804218A431A605D4B00221A7084E0C1
:10207800564B1800FEF752FE5449554BC82218001B
:1020880006F074FB534B1B681A68524B1B680421FB
:102098008A431A60524B00221A706EE04B4B1800AC
:1020A800FEF718FF49494A4BC822180006F05EFBA4
:1020B800484B1B681A68474B1B6804218A431A60FF
:1020C800474B00221A7058E0404B1800FFF74AF9B6
:1020D8003E493F4BC822180006F048FB3D4B1B68A1
:1020E8001A683C4B1B6804218A431A603C4B002247
:1020F8001A7042E0354B1800FEF758FF3349344B4D
:10210800C822180006F032FB324B1B681A68314BA4
:102118001B6804218A431A60314B00221A702CE094
:102128002A4B1800FFF732F82849294BC822180013
:1021380006F01CFB274B1B681A68264B1B680421FA
:102148008A431A60264B00221A7016E01F4B1800AB
:10215800FEF78AFF1D491E4BC822180006F006FB31
:102168001C4B1B681A681B4B1B6804218A431A60A6
:102178001B4B00221A7000E0C046144BC8220021F5
:10218800180006F0ECFB80239B01174A1900100089
:1021980002F05EFC0300012B04D1144B1800FFF77A
:1021A8000DFE05E0124B1800FFF708FEFFF732FEA0
:1021B8002021002000F0BCFB07490E4B012218002B
:1021C80000F050FC00F0F8FAB2E6C046C404002063
:1021D800D40300206804002000000020F8950008BF
:1021E8005C0D0020B49D000800080050049600080B
:1021F800209600084096000890B593B000AF1424CC
:102208003B19180034231A00002106F0A8FB3B1DD7
:10221800180010231A00002106F0A1FB80239B0060
:10222800180003F0E5F93B1902221A603B198022D5
:102238005200DA6021007B1800221A617B184022C4
:102248005A617B180222DA617B1802221A627B1813
:1022580000225A627B1808229A627B188022920216
:10226800DA627B18802292051A637B18180003F043
:1022780087FA031E01D000F0D5F93B1D07221A602A
:102288003B1D02225A603B1D00229A603B1D002222
:10229800DA603B1D0221180003F082FD031E01D005
:1022A80000F0C0F9C046BD4613B090BD80B500AF80
:1022B8000E4B0F4A1A600D4B00221A710B4B00226D
:1022C8005A710A4B00225A61084B00229A61074B47
:1022D80003221A62054B180001F064F9031E01D0AD
:1022E80000F0A0F9C046BD4680BDC046640200208B
:1022F8000030024080B500AF1B4B1C4A1A601A4BD5
:102308001B4A5A60184B00229A60174B0122DA6068
:10231800154B00221A61144B00225A61124B0022FD
:102328009A61114B0022DA610F4B00221A620E4BA0
:10233800180002F0C7FB031E01D000F073F90A4B26
:102348000021180003F0BCF8031E01D000F06AF960
:10235800054B0021180003F0FFF8031E01D000F020
:1023680061F9C046BD4680BD880200200054004087
:102378007321600080B500AF1B4B1C4A1A601A4BD2
:10238800822252005A60184B00229A60164BE022B3
:10239800D200DA60144B00221A61134B00225A61F2
:1023A800114B802292009A610F4B2022DA610E4B6A
:1023B80000221A620C4B00225A620B4B00229A62CE
:1023C800094B0722DA62084B00221A63064B0822DF
:1023D8005A63054B180003F0C1FF031E01D000F03B
:1023E80021F9C046BD4680BDDC0200200030014016
:1023F80080B500AF234B244A1A60224BE1225202D7
:102408005A60204B802252059A601E4B0022DA60E7
:102418001C4B00221A611B4B0C225A61194B0022DB
:102428009A61184B0022DA61164B00221A62154B8A
:1024380000225A62134B00229A62124B180004F0D1
:102448008FFE031E01D000F0EDF80E4B002118009E
:1024580006F00AF9031E01D000F0E4F8094B002148
:10246800180006F041F9031E01D000F0DBF8054B17
:10247800180006F0BFF8031E01D000F0D3F8C046DC
:10248800BD4680BD400300200044004080B500AF39
:10249800164B174A1A60154B962292015A60134B35
:1024A80000229A60114B0022DA60104B00221A6158
:1024B8000E4B0C225A610D4B00229A610B4B0022E5
:1024C800DA610A4B00221A62084B00225A62074B53
:1024D80000229A62054B180004F042FE031E01D048
:1024E80000F0A0F8C046BD4680BDC046D403002019
:1024F8000048004080B582B000AF0C4B9A6B0B4B84
:1025080001210A439A63094B9B6B012213407B60AC
:102518007B6800220021092001F002F8092001F05F
:1025280014F8C046BD4602B080BDC0460010024047
:1025380090B58BB000AF14243B19180014231A006F
:10254800002106F00CFA344B5A6B334B04210A4332
:102558005A63314B5B6B042213403B613B692E4B42
:102568005A6B2D4B20210A435A632B4B5B6B20225D
:102578001340FB60FB68284B5A6B274B01210A4329
:102588005A63254B5B6B01221340BB60BB68224B2F
:102598005A6B214B02210A435A631F4B5B6B022281
:1025A80013407B607B681C4B5A6B1B4B08210A430A
:1025B8005A63194B5B6B082213403B603B68174B0F
:1025C80001220121180002F060FA3B1980229201D1
:1025D8001A603B1900225A603B1900229A603B1985
:1025E8000F4A1900100001F0FFFF21007B1801229B
:1025F8001A607B1801225A607B1800229A607B18A7
:102608000322DA607B18054A1900100001F0ECFF7C
:10261800C046BD460BB090BD0010024000040050FB
:102628000008005080B500AF72B6C046FEE7000053
:1026380080B582B000AF00F03BFA5B4B5B480122EB
:10264800782102F00DFC031E01D00023A8E0584BAE
:102658007B6002E07B68013B7B607B68002BF9D1E3
:10266800AE220021782000F0A3FA20220021782051
:1026780000F09EFA10220021782000F099FAB0228A
:102688000021782000F094FAC8220021782000F078
:102698008FFA00220021782000F08AFA1022002107
:1026A800782000F085FA40220021782000F080FA96
:1026B80081220021782000F07BFAFF220021782077
:1026C80000F076FAA1220021782000F071FAA62203
:1026D8000021782000F06CFAA8220021782000F070
:1026E80067FA3F220021782000F062FAA422002134
:1026F800782000F05DFAD3220021782000F058FA03
:1027080000220021782000F053FAD52200217820F9
:1027180000F04EFAF0220021782000F049FAD92280
:102728000021782000F044FA22220021782000F0CD
:102738003FFADA220021782000F03AFA122200212A
:10274800782000F035FADB220021782000F030FAFA
:1027580020220021782000F02BFA8D2200217820F9
:1027680000F026FA14220021782000F021FAAF2286
:102778000021782000F01CFA2E220021782000F099
:1027880017FA002000F04CF800F016F8094B002268
:102798001A80084B00225A80064B01225A710123E5
:1027A8001800BD4602B080BD204E000088020020FF
:1027B800C40900006011002080B582B000AFFB1D85
:1027C80000221A7021E0FB1D1B78503BDBB21A0077
:1027D8000021782000F0ECF900220021782000F098
:1027E800E7F910220021782000F0E2F9FB1D1B78A0
:1027F800DA010A4BD21880234021782000F06CF9C6
:10280800FB1D1A78FB1D01321A70FB1D1B78072B64
:10281800D9D9C046C046BD4602B080BD600D002073
:1028280080B582B000AF0200FB1D1A70FB1D1B783B
:10283800002B01D1002300E0FF238022D2000448AE
:10284800190006F08CF8C046BD4602B080BDC046EF
:10285800600D002090B583B000AF0400080011009F
:10286800BB1D221C1A803B1D021C1A80FB1C0A1C63
:102878001A70BB1D1B887F2B52D83B1D1B883F2B12
:102888004ED8294B1B79002B06D0FB1C1B785A42CB
:102898005341DAB2FB1C1A70FB1C1B78012B1ED1AA
:1028A800BB1D1A883B1D1B88DB0898B20300DB019F
:1028B800D3181E4AD35C5AB23B1D1B8807210B4014
:1028C800012199400B005BB2134359B2BB1D1A8812
:1028D8000300DB01D318C9B2144AD15421E0BB1D4F
:1028E8001A883B1D1B88DB0898B20300DB01D3184C
:1028F8000E4AD35C5BB23A1D128807210A400121B7
:1029080091400A0052B2D24352B2134059B2BB1D91
:102918001A880300DB01D318C9B2044AD15400E075
:10292800C046BD4603B090BD60110020600D002078
:1029380080B582B000AF0200BB1D1A803B1D0A1C87
:102948001A80064BBA1D12881A80044B3A1D128849
:102958005A80C046BD4602B080BDC0466011002006
:1029680080B586B000AF39601100FB1D021C1A70DB
:10297800BB1D0A1C1A703A4B1B881A003B681B784F
:10298800D3187F2B07DC364B5B881A003B685B78D3
:10299800D3183F2B01DD00235EE000237B614AE072
:1029A8003B685A68FB1D1B78203B396849784B43C4
:1029B80019007B69CB185B00D3181B88FB600023C8
:1029C8003B612FE0FA683B699A4080231B02134061
:1029D80011D0234B1A883B699BB2D31898B2204B6D
:1029E8005A887B699BB2D31899B2BB1D1B781A0011
:1029F800FFF730FF13E01A4B1A883B699BB2D318D4
:102A080098B2174B5A887B699BB2D31899B2BB1DF1
:102A18001B785A425341DBB21A00FFF71BFF3B6990
:102A280001333B613B681B781A003B699342C9D369
:102A38007B6901337B613B685B781A007B69934251
:102A4800AED3074B1A883B681B789BB2D3189AB24F
:102A5800034B1A80FB1D1B781800BD4606B080BDCD
:102A68006011002080B584B000AFF860B960FB1D2C
:102A78001A7013E0FB681878FB1D1A78BB681900F8
:102A8800FFF76EFF03001A00FB681B789A4202D01A
:102A9800FB681B7808E0FB680133FB60FB681B7868
:102AA800002BE7D1FB681B781800BD4604B080BD39
:102AB80080B582B000AF074B7B6002E07B68013BCA
:102AC8007B607B68002BF9D1C046C046BD4602B08A
:102AD80080BDC04690D00300B0B5C6B002AF0400B8
:102AE80008003A6019002D4B88256D005B19DB1929
:102AF800221C1A702A4B2C001B19DB19021C1A7095
:102B0800284B20001B18DB190A1C1A80264B1B189F
:102B1800DB19234A1218D21912781A701023FF33BE
:102B2800FB1800221A7014E01020FF303B181B78A5
:102B38003A68D2183B181B78013311781A4A88244E
:102B480064001219D219D1543B181A783B18013273
:102B58001A701023FF33FB181B789BB2114A882187
:102B680049005218D21912889A42DDD80B4B0A0034
:102B78009B18DB191B7899B20A4B9B18DB191B8829
:102B880001339BB20C22BA1808480A24009402F0B8
:102B98005FF8C046BD4644B0B0BDC046F7FEFFFF73
:102BA800F6FEFFFFF4FEFFFFFCFEFFFF8802002099
:102BB80090B587B002AF040008001100FB1D221C6D
:102BC8001A70BB1D021C1A707B1D0A1C1A700C207F
:102BD8003B18BA1D12781A703B187A1D12785A7071
:102BE800FB1D1B7899B23A1804480A230093022364
:102BF80002F02EF8C046BD4605B090BD8802002000
:102C080080B582B000AF134B1A6C124B01210A43F6
:102C18001A64104B1B6C012213407B607B680D4BC0
:102C2800DA6B0C4B802149050A43DA63094BDA6BEE
:102C380080235B0513403B603B6800220121032091
:102C480000F06EFC032000F080FCC046BD4602B0D8
:102C580080BDC0460010024080B584B000AF7860E7
:102C68007B681B680A4A93420DD10A4B9A6B094B41
:102C7800802149010A439A63064B9A6B80235B01C2
:102C88001340FB60FB68C046BD4604B080BDC0462B
:102C9800003002400010024080B582B000AF78607A
:102CA8007B681B68064A934205D1064B9A6B054B15
:102CB80005490A409A63C046BD4602B080BDC04679
:102CC8000030024000100240FFEFFFFF90B591B0C6
:102CD80000AF78602C23FB18180014231A00002179
:102CE80005F03DFE10243B1918001C231A00002192
:102CF80005F035FE7B681B68224A93423ED13B199A
:102D080020221A603B190022DA603B19180003F0F0
:102D1800F1F9031E01D0FFF785FC1B4B5A6B1A4BC8
:102D280002210A435A63184B5B6B02221340FB6073
:102D3800FB682C217B18C02292001A607B18122293
:102D48005A607B1800229A607B180022DA607B1890
:102D580006221A617B180D4A1900100001F044FC84
:102D6800094BDA6B084B802189030A43DA63064B67
:102D7800DA6B80239B031340BB60BB68C046BD462B
:102D880011B090BD005400400010024000040050F3
:102D980080B582B000AF78607B681B680D4A9342AB
:102DA80013D10D4BDA6B0C4B0C490A40DA638023C4
:102DB8005B000B4A1900100001F07AFD80239B008C
:102DC800074A1900100001F073FDC046BD4602B065
:102DD80080BDC0460054004000100240FFFFDFFFE6
:102DE8000004005090B58BB000AF786014243B19F4
:102DF800180014231A00002105F0B1FD7B681B6838
:102E08001B4A934230D11B4B1A6C1A4B8021490143
:102E18000A431A64174B1A6C80235B0113403B6109
:102E28003B69144B5A6B134B01210A435A63114BEC
:102E38005B6B01221340FB60FB6821007B18E022DA
:102E48001A607B1802225A607B1800229A607B184D
:102E58000022DA607B1800221A617A18A023DB05A9
:102E68001100180001F0C0FBC046BD460BB090BD74
:102E7800003001400010024090B593B000AF786078
:102E88003423FB18180014231A00002105F067FDED
:102E980018243B1918001C231A00002105F05FFDB7
:102EA8007B681B68574A93423FD13B1902221A603C
:102EB8003B1900229A603B19180003F01BF9031E06
:102EC80001D0FFF7AFFB504BDA6B4F4B80218902E3
:102ED8000A43DA634C4BDA6B80239B0213407B6115
:102EE8007B69494B5A6B484B01210A435A63464B4D
:102EF8005B6B012213403B613B6934217B180C2238
:102F08001A607B1802225A607B1801229A607B188B
:102F18000022DA607B1801221A617A18A023DB05E7
:102F28001100180001F060FB67E07B681B68374AF6
:102F3800934262D1344BDA6B334B8021C9020A4386
:102F4800DA63314BDA6B8023DB021340FB60FB68EA
:102F58002D4B5A6B2C4B08210A435A632A4B5B6B47
:102F680008221340BB60BB6834217B18C022920042
:102F78001A607B1802225A607B1800229A607B181C
:102F88000022DA607B1800221A617B18204A190097
:102F9800100001F029FB1F4B1F4A1A601D4B3622F7
:102FA8005A601C4B00229A601A4B0022DA60194BB7
:102FB80080221A61174B00225A61164B00229A612F
:102FC800144B0022DA61134B00221A62114B1800CD
:102FD80000F0FCFC031E01D0FFF724FB7B68802176
:102FE8000C4A5A500B4B7A689A62002200211D2025
:102FF80000F096FA1D2000F0A8FAC046BD4613B0AE
:1030080090BDC04600440040001002400048004007
:10301800000C0050680400200800024080B582B00F
:1030280000AF78607B681B68174A93420CD1174B36
:10303800DA6B164B16490A40DA63A023DB050C212C
:10304800180001F035FC1AE07B681B68114A9342AE
:1030580015D10E4BDA6B0D4B0F490A40DA63C023CA
:103068009B000E4A1900100001F022FC7B688022A8
:103078009B58180000F034FD1D2000F076FAC04679
:10308800BD4602B080BDC04600440040001002406A
:10309800FFFFFDFF00480040FFFFFBFF000C005052
:1030A80080B500AFFEE780B500AFFEE780B500AFA2
:1030B800C046BD4680BD80B500AFC046BD4680BD98
:1030C80080B500AF00F01EF9C046BD4680BD80B592
:1030D80000AF01F05FF8C046BD4680BD80B500AFC7
:1030E800034B180000F0C6FEC046BD4680BDC04672
:1030F8006804002080B500AF034B180004F022F9E3
:10310800C046BD4680BDC046D403002080B586B009
:1031180000AF7860144A154BD31A7B617B693B6119
:10312800134B1B68002B02D1114B124A1A60104B2B
:103138001A687B68D3183A699A4207D205F0DCFB13
:1031480003000C221A6001235B4209E0084B1B684C
:10315800FB60074B1A687B68D218054B1A60FB683E
:103168001800BD4606B080BD009000200004000095
:1031780068110020A011002080B500AFC046BD46F0
:1031880080BD00000D488546FFF7F6FF0C480D4945
:103198000D4A002302E0D458C4500433C4188C42AA
:1031A800F9D30A4A0A4C002301E013600432A24210
:1031B800FBD305F0A7FBFEF797FEFEE70090002083
:1031C800000000200C010020B49E0008100100201F
:1031D8009C110020FEE7000080B582B000AFFB1D07
:1031E80000221A700B4B1A680A4B802149000A43C7
:1031F8001A60002000F03CF8031E03D0FB1D0122DA
:103208001A7001E0FFF7FCFCFB1D1B781800BD4697
:1032180002B080BD0020024080B500AF104B0122F3
:103228005242DA620E4B0022DA620D4B0122524200
:103238001A630B4B00221A63094B012252429A620D
:10324800074B00229A62064B012252425A62044BF3
:1032580000225A6200F006F800231800BD4680BD1F
:103268000010024080B500AFC046BD4680BD0000DA
:1032780090B585B000AF78600F23FB1800221A7054
:103288001D4B1B78002B2BD01C4B1C681A4B1B7832
:103298001900FA239800FCF741FF030019002000E9
:1032A800FCF73CFF0300180000F06FF9031E12D171
:1032B8007B68032B0AD8796801235B420022180037
:1032C80000F02EF90E4B7A681A600DE00F23FB18F8
:1032D80001221A7008E00F23FB1801221A7003E07C
:1032E8000F23FB1801221A700F23FB181B781800F4
:1032F800BD4605B090BDC0461C000020140000204B
:103308001800002080B500AF054B1B781A00054B4C
:103318001B68D218034B1A60C046BD4680BDC04624
:103328001C0000206C11002080B500AF024B1B6808
:103338001800BD4680BDC0466C11002080B584B021
:1033480000AF7860FFF7F0FF0300BB607B68FB60AD
:10335800FB68013305D00A4B1B781A00FB689B18E1
:10336800FB60C046FFF7E0FF0200BB68D31AFA68AB
:103378009A42F7D8C046C046BD4604B080BDC04694
:103388001C00002080B582B000AF0200FB1D1A703F
:10339800FB1D1B787F2B09D8FB1D1B781A001F23E8
:1033A8001A40044B012191400A001A60C046BD46EC
:1033B80002B080BD00E100E080B582B000AF02003D
:1033C800FB1D1A70FB1D1B787F2B10D8FB1D1B786B
:1033D8001A001F231340084901229A401300802233
:1033E8008B50BFF34F8FC046BFF36F8FC046C046A8
:1033F800BD4602B080BDC04600E100E090B583B094
:1034080000AF02003960FB1D1A70FB1D1B787F2B73
:1034180028D82F4AFB1D1B785BB29B08C0339B0042
:103428009B58FA1D1278110003220A40D200FF218E
:1034380091400A00D2431A4011003B689B01FF22C9
:103448001A40FB1D1B78180003230340DB009A4039
:103458001F48FB1D1B785BB29B080A43C0339B00C7
:103468001A5031E01B4AFB1D1B7819000F230B4033
:10347800083B9B0806339B00D31804331B68FA1DCE
:103488001278110003220A40D200FF2191400A005D
:10349800D2431A4011003B689B01FF221A40FB1DD2
:1034A8001B78180003230340DB009A400948FB1DE2
:1034B8001B781C000F232340083B9B080A43063354
:1034C8009B00C31804331A60C046BD4603B090BDC4
:1034D80000E100E000ED00E080B582B000AF786068
:1034E8007B685A1E80235B049A4201D3012310E0B3
:1034F8000A4B7A68013A5A6001235B42032118009B
:10350800FFF77CFF054B00229A60044B07221A60E4
:1035180000231800BD4602B080BDC04610E000E0A0
:1035280080B584B000AFB9607A600F217B18021CA7
:103538001A70BA687B181B785BB211001800FFF785
:103548005DFFC046BD4604B080BD80B582B000AF07
:103558000200FB1D1A70FB1D1B785BB21800FFF7F9
:1035680011FFC046BD4602B080BD80B582B000AF35
:103578000200FB1D1A70FB1D1B785BB21800FFF7D9
:103588001BFFC046BD4602B080BD80B582B000AF0B
:1035980078607B681800FFF79FFF03001800BD469E
:1035A80002B080BD80B582B000AF78607B68002B28
:1035B80001D1012356E07B685B7FDBB2002B06D18B
:1035C8007B6800221A777B681800FFF745FB7B6849
:1035D80002225A777B681B79002B0CD17B681B6809
:1035E800224A5A617B681B689A687B681B681821A5
:1035F8008A439A600BE07B6899687B68DA687B6825
:10360800180000F075F9031E01D001232AE07B6839
:103618005B79002B05D17B681B68012252421A6135
:1036280004E07B681B687A6812691A617B681B680A
:103638009B686022934319007B685A697B681B6802
:103648000A439A607B681B689B6880229343190031
:103658007B689A697B681B680A439A607B680122C9
:103668005A7700231800BD4602B080BDB71DC104BB
:1036780080B582B000AF78607B68002B01D1012350
:1036880023E07B685B7FDBB2022B01D102231CE0C5
:103698007B6802225A777B681B689A687B681B687C
:1036A80001210A439A607B681B685B687B681B681A
:1036B80000225A607B681800FFF7EEFA7B68002248
:1036C8005A777B6800221A7700231800BD4602B09B
:1036D80080BD80B586B000AFF860B9607A6000231D
:1036E8003B61FB6802225A77FB681B6A032B05D0F3
:1036F8002DD8012B19D0022B20D028E000237B6184
:103708000AE07B699B00BA68D218FB681B681268DC
:103718001A607B6901337B617A697B689A42F0D3CE
:10372800FB681B681B683B6112E07A68B968FB6834
:10373800180000F015F803003B6109E07A68B968E1
:10374800FB68180000F09DF803003B6100E0C046EC
:10375800FB6801225A773B691800BD4606B080BD58
:1037680080B588B000AFF860B9607A600023FB616B
:1037780023E0FB699B00BA68D3181B781A06FB691B
:103788009B000133B968CB181B781B041A43FB69EB
:103798009B000233B968CB181B781B021A43FB69DC
:1037A8009B000333B968CB181B781900FB681B68AA
:1037B8000A431A60FB690133FB617B689B08FA695D
:1037C8009A42D6D37B680322134053D07B680322E6
:1037D8001340012B07D1FB699B00BA68D218FB681C
:1037E8001B6812781A707B6803221340022B19D1C8
:1037F800FB699B00BA68D3181B781B021AB2FB69D5
:103808009B000133B968CB181B781BB213431AB25B
:103818001A217B181A80FB681B687B617B697A1800
:1038280012881A807B6803221340032B22D1FB697C
:103838009B00BA68D3181B781B021AB2FB699B005D
:103848000133B968CB181B781BB213431AB21A217B
:103858007B181A80FB681B687B617B697A18128861
:103868001A80FB699B000233BA68D218FB681B6890
:1038780012781A70FB681B681B681800BD4608B0F0
:1038880080BD80B586B000AFF860B9607A6000236B
:103898007B6113E07B699B00BA68D3181B881A0404
:1038A8007B699B000233B968CB181B881900FB6839
:1038B8001B680A431A607B6901337B617B685B087C
:1038C8007A699A42E6D37B680122134009D0FB68E3
:1038D8001B683B617B699B00BA68D3181A883B69EF
:1038E8001A80FB681B681B681800BD4606B080BDBF
:1038F80080B586B000AFF860B9607A601723FB180E
:1039080000221A701F233B61C0463B695A1E3A6168
:10391800002B08D03B691F221340BA68DA40130015
:1039280001221340F1D07B68182B0FD07B68182B2D
:1039380024D87B68102B11D07B68102B1ED87B688D
:10394800002B20D07B68082B10D017E03B69062B92
:103958001BD91723FB1801221A7016E03B69072BA5
:1039680015D91723FB1801221A7010E03B690F2B99
:103978000FD91723FB1801221A700AE01723FB1826
:1039880001221A7006E0C04604E0C04602E0C046C4
:1039980000E0C0461723FB181B78002B0ED1FB68EC
:1039A8001B68BA685A61FB681B689B6818229343B6
:1039B8001900FB681B687A680A439A601723FB188A
:1039C8001B781800BD4606B080BD000080B582B0E7
:1039D80000AF78607B68002B01D1012377E07B681A
:1039E8001B683D4A9446634414211800FCF796FB73
:1039F80003009A007B681A647B6825220221995487
:103A08007B681B681A687B681B6834490A401A601F
:103A18007B681B6819687B689A687B68DB681A434F
:103A28007B681B691A437B685B691A437B689B69DF
:103A38001A437B68DB691A437B681B6A1A437B68F5
:103A48001B680A431A607B68180000F005FB7B6856
:103A58009A688023DB019A4202D17B6800225A606F
:103A68007B685A687B685B6C3F210A401A607B68F8
:103A78009B6C7A68D26C5A607B685B68002B11D0AB
:103A88007B685B68042B0DD87B68180000F010FB7E
:103A98007B681B6D00221A607B685B6D7A68926D8B
:103AA8005A6008E07B6800221A657B6800225A6524
:103AB8007B6800229A657B680022DA637B6825228E
:103AC800012199547B68242200219954002318006D
:103AD800BD4602B080BDC046F8FFFDBF0F80FFFFA6
:103AE80080B582B000AF78607B68002B01D10123DC
:103AF80066E07B681B681A687B681B6801218A433B
:103B08001A607B681B68304A944663441421180085
:103B1800FCF704FB03009A007B681A647B681B6847
:103B280000221A60294B59687B681B6C1C221340C1
:103B380001229A40254B0A435A607B68180000F01E
:103B48008BFA7B685B6C00221A607B689B6C7A68D6
:103B5800D26C5A607B685B68002B10D07B685B680E
:103B6800042B0CD87B68180000F0A2FA7B681B6D48
:103B780000221A607B685B6D7A68926D5A607B6878
:103B880000221A657B6800225A657B6800229A65C4
:103B98007B680022DA627B6800221A637B68002255
:103BA8005A637B6800229A637B680022DA637B6829
:103BB8002522002199547B6824220021995400234E
:103BC8001800BD4602B080BDF8FFFDBF00000240EE
:103BD80080B586B000AFF860B9607A603B601723A3
:103BE800FB1800221A70FB6824229B5C012B01D170
:103BF80002236FE0FB68242201219954FB682522E7
:103C08009B5CDBB2012B57D1FB682522022199541A
:103C1800FB680022DA63FB681B681A68FB681B688C
:103C280001218A431A603B687A68B968F86800F02D
:103C3800D3F9FB681B6B002B08D0FB681B681A685C
:103C4800FB681B680E210A431A600FE0FB681B68BB
:103C58001A68FB681B6804218A431A60FB681B68A2
:103C68001A68FB681B680A210A431A60FB685B6CC8
:103C78001A6880235B02134008D0FB685B6C1A68E3
:103C8800FB685B6C802149000A431A60FB681B6D66
:103C9800002B08D0FB681B6D1A68FB681B6D802120
:103CA80049000A431A60FB681B681A68FB681B68AE
:103CB80001210A431A600AE0FB688022DA63FB6884
:103CC8002422002199541723FB1801221A70172364
:103CD800FB181B781800BD4606B080BD80B582B0C1
:103CE80000AF78607B68002B01D1012350E07B682E
:103CF80025229B5CDBB2022B08D07B680422DA63A6
:103D08007B68242200219954012341E07B681B68C9
:103D18001A687B681B680E218A431A607B685B6C93
:103D28001A687B685B6C1C490A401A607B681B68D0
:103D38001A687B681B6801218A431A60174B596807
:103D48007B681B6C1C22134001229A40134B0A43C8
:103D58005A607B689B6C7A68D26C5A607B681B6D72
:103D6800002B0CD07B681B6D1A687B681B6D0A4999
:103D78000A401A607B685B6D7A68926D5A607B684E
:103D88002522012199547B6824220021995400237B
:103D98001800BD4602B080BDFFFEFFFF00000240D4
:103DA80080B584B000AF78600F217B1800221A70AC
:103DB8007B6825229B5CDBB2022B06D07B68042241
:103DC800DA637B1801221A7049E07B681B681A685D
:103DD8007B681B680E218A431A607B681B681A6817
:103DE8007B681B6801218A431A607B685B6C1A68D0
:103DF8007B685B6C1D490A401A601D4B59687B68DB
:103E08001B6C1C22134001229A40194B0A435A602A
:103E18007B689B6C7A68D26C5A607B681B6D002B40
:103E28000CD07B681B6D1A687B681B6D0F490A40B4
:103E38001A607B685B6D7A68926D5A607B68252290
:103E4800012199547B682422002199547B689B6B3B
:103E5800002B04D07B689B6B7A68100098470F236F
:103E6800FB181B781800BD4604B080BDFFFEFFFF9D
:103E78000000024080B584B000AF7860554B1B68E5
:103E8800FB607B681B681B68BB607B681B6C1C2223
:103E9800134004229A401300FA68134027D0BB68E5
:103EA8000422134023D07B681B681B682022134020
:103EB80007D17B681B681A687B681B6804218A43E2
:103EC8001A60444B59687B681B6C1C2213400422FF
:103ED8009A40404B0A435A607B681B6B002B00D109
:103EE80073E07B681B6B7A68100098476DE07B680D
:103EF8001B6C1C22134002229A401300FA681340DC
:103F08002ED0BB68022213402AD07B681B681B682E
:103F1800202213400BD17B681B681A687B681B68DA
:103F28000A218A431A607B68252201219954294B6A
:103F380059687B681B6C1C22134002229A40254B4F
:103F48000A435A607B682422002199547B68DB6A03
:103F5800002B3AD07B68DB6A7A681000984734E017
:103F68007B681B6C1C22134008229A401300FA68D5
:103F780013402BD0BB680822134027D07B681B68EE
:103F88001A687B681B680E218A431A60114B5968AE
:103F98007B681B6C1C22134001229A400D4B0A437C
:103FA8005A607B680122DA637B68252201219954D3
:103FB8007B682422002199547B685B6B002B05D019
:103FC8007B685B6B7A6810009847C046C046BD4660
:103FD80004B080BD0000024080B584B000AFF86036
:103FE800B9607A603B60FB689B6CFA68D26C5A6077
:103FF800FB681B6D002B04D0FB685B6DFA68926D43
:104008005A60144B5968FB681B6C1C221340012230
:104018009A40104B0A435A60FB681B683A685A601A
:10402800FB689B68102B08D1FB681B687A689A604C
:10403800FB681B68BA68DA6007E0FB681B68BA6847
:104048009A60FB681B687A68DA60C046BD4604B0AF
:1040580080BDC0460000024080B584B000AF7860E3
:104068007B681B6C9B08104A944663449B001A00AB
:104078007B685A647B681B681A00FF231340083B5F
:1040880014211800FCF74AF80300FB607B68074A14
:104098009A64FB681F22134001229A407B68DA6405
:1040A800C046BD4604B080BD0082001080080240B2
:1040B80080B584B000AF78607B685B683F221340AE
:1040C800FB60FB680A4A944663449B001A007B68BD
:1040D8001A657B68074A5A65FB68013B032213404F
:1040E80001229A407B689A65C046BD4604B080BDEF
:1040F8003F82001040090240B0B586B000AFF860BA
:10410800B9603A607B60214B1B78012B01D10223F7
:1041180038E01E4B01221A701C4B00225A601725EA
:104128007C19FA239B00180000F04CF90300237057
:104138007B191B78002B1FD1FB68012B06D13A682D
:104148007B68B968080000F08BF905E03A68BB683D
:104158001100180005F07CF81723FC18FA239B00BF
:10416800180000F02FF903002370094B5A69FB6807
:10417800D943074B0A405A61044B00221A7017238F
:10418800FB181B781800BD4606B0B0BD70110020A2
:104198000020024080B582B000AF3A4B1B693A4A12
:1041A80013403B60394B9B680422134003D0374BC4
:1041B8001B697B6013E0334B5A69344B9B68D943C6
:1041C800304B0A405A61314B9B68314A134003D047
:1041D8002E4BDB687B6002E02C4B5B697B603B68A5
:1041E800002B0FD0294B5A683B681A43274B5A605B
:1041F800244B254A1A61254B00229A607B681800D7
:1042080000F052F81F4B1B690122134028D01D4BA8
:1042180001221A611D4B9B68022B1AD11B4B9B690B
:104228005A1E1A4B9A61194B9B69002B0DD0174BDC
:104238005B695A1C154B5A61144B1A69134B5B691D
:104248001900100000F0B4F906E0104B00229A6043
:1042580002E00E4B00229A607B68180000F01CF800
:104268000A4B9B68002B08D1064B5A69054B094934
:104278000A405A61054B00221A70C046BD4602B07A
:1042880080BDC04600200240FA8300007011002063
:1042980001000400FFFFFFFC80B582B000AF78602A
:1042A800C046BD4602B080BD80B582B000AF786020
:1042B800C046BD4602B080BD80B582B000AFFB1DD0
:1042C80000221A700B4B5B69002B0CDA094B0A4A67
:1042D8009A60084B094A9A60064B5B69002B02DA20
:1042E800FB1D01221A70FB1D1B781800BD4602B089
:1042F80080BDC0460020024023016745AB89EFCD51
:1043080080B582B000AFFB1D01221A70094B5A69B3
:10431800084B802109060A435A61064B5B69002B4A
:1043280002DAFB1D00221A70FB1D1B781800BD461F
:1043380002B080BD0020024080B582B000AFFB1DF6
:1043480001221A700D4B5A698023DB0513400ED0E9
:104358000A4B0B4ADA60094B0A4ADA60074B5A697A
:104368008023DB05134002D1FB1D00221A70FB1DC0
:104378001B781800BD4602B080BDC0460020024030
:104388003B2A19087F6E5D4C80B582B000AFFB1DDB
:1043980001221A700A4B5A69094B8021C9050A4340
:1043A8005A61074B5A698023DB05134002D0FB1D75
:1043B80000221A70FB1D1B781800BD4602B080BD94
:1043C8000020024080B584B000AF7860FEF7ACFFF3
:1043D80002007B689B18FB6080235B02BB6007E0E0
:1043E800FEF7A2FF0200FB68934201D803232AE0EC
:1043F800174B1B69BA681340F2D1154B1B69154A54
:104408001340BB60124B144A1A61BB68002B04D0DE
:10441800124BBA685A60012315E0FEF785FF0200C7
:104428007B689B18FB6007E0FEF77EFF0200FB68D5
:10443800934201D8032306E0054B1A698023DB0267
:104448001340F1D100231800BD4604B080BDC0461A
:1044580000200240FA830000FB8300007011002056
:10446800B0B584B000AFF8603A607B600B4B5A6916
:104478000A4B01210A435A61FB683A681A60BFF384
:104488006F8FC0467B681C0000231D00FB68043347
:1044980022001A60C046BD4604B0B0BD00200240EC
:1044A800B0B584B000AF78603960354B1B78012B0C
:1044B80001D102235FE0324B01221A70304B0022F7
:1044C8005A600F257C19FA239B001800FFF77AFF22
:1044D800030023702C003B191B78002B45D17B6807
:1044E80004225A607B681B68042B0DD17B685B68CB
:1044F800180000F049F83C19FA239B001800FFF750
:1045080061FF0300237030E03B68012252421A60C9
:104518007B689B68BB601AE07B685B68BA681100BF
:10452800180000F045F80F257C19FA239B001800A5
:10453800FFF748FF030023707B191B78002B03D07B
:104548003B68BA681A600AE0BB680133BB607B68E5
:104558009A687B68DB68D318BA689A42DCD3094B3F
:104568005A69084B02218A435A61054B00221A7086
:104578000F23FB181B781800BD4604B0B0BDC04619
:10458800701100200020024080B582B000AF786032
:10459800064B5A697B681A43044B802149020A4337
:1045A8005A61C046BD4602B080BDC04600200240E8
:1045B80080B584B000AF78603960084B5B69084A01
:1045C8001340FB603B68DA00FB681A43034B05495C
:1045D8000A435A61C046BD4604B080BD002002406F
:1045E80007E0FFFF0200010080B586B000AF7860E9
:1045F800396000237B6147E13B681B6801217A69C8
:1046080091400A001340FB60FB68002B00D138E1A1
:104618003B685B6803221340012B05D03B685B684D
:1046280003221340022B30D17B689B683B617B6976
:104638005B0003229A401300DA433B6913403B6155
:104648003B68DA687B695B009A4013003A69134358
:104658003B617B683A699A607B685B683B610122D1
:104668007B699A401300DA433B6913403B613B681E
:104678005B681B0901221A407B699A4013003A695A
:1046880013433B617B683A695A603B685B68032265
:104698001340032B17D07B68DB683B617B695B00A9
:1046A80003229A401300DA433B6913403B613B689D
:1046B8009A687B695B009A4013003A6913433B612F
:1046C8007B683A69DA603B685B6803221340022B17
:1046D80023D17B69DA087B6808329200D3583B61A2
:1046E8007B69072213409B000F229A401300DA438C
:1046F8003B6913403B613B681A697B6907210B40A2
:104708009B009A4013003A6913433B617B69DA08BE
:104718007B68083292003969D1507B681B683B611D
:104728007B695B0003229A401300DA433B6913401C
:104738003B613B685B6803221A407B695B009A40D7
:1047480013003A6913433B617B683A691A603B6816
:104758005A68C0239B02134000D192E0504A7B69FB
:104768009B0818339B009B583B617B6903221340CD
:10477800DB000F229A401300DA433B6913403B6188
:104788007A68A023DB059A4213D07B68454A934296
:104798000DD07B68444A934207D07B68434A9342D2
:1047A80001D1032306E0052304E0022302E00123EC
:1047B80000E000237A6903210A40D20093403A6955
:1047C80013433B6136497B699B0818339B003A6960
:1047D8005A50334B1B683B61FB68DA433B69134013
:1047E8003B613B685A6880235B03134003D03A69F6
:1047F800FB6813433B612A4B3A691A60284B5B6894
:104808003B61FB68DA433B6913403B613B685A688C
:1048180080239B03134003D03A69FB6813433B6131
:104828001F4B3A695A601E4A8423D3583B61FB6880
:10483800DA433B6913403B613B685A6880239B021B
:10484800134003D03A69FB6813433B61144984223F
:104858003B698B50124A8023D3583B61FB68DA438B
:104868003B6913403B613B685A6880235B021340F5
:1048780003D03A69FB6813433B61094980223B69CD
:104888008B507B6901337B613B681A687B69DA402E
:10489800131E00D0B0E6C046C046BD4606B080BD77
:1048A800001802400004005000080050000C00509E
:1048B80080B586B000AF7860396000237B61B4E0D2
:1048C80001227B699A403B6813403B613B69002B9E
:1048D80000D1A7E05A4A7B699B0818339B009B5874
:1048E800FB607B6903221340DB000F229A40FB68C0
:1048F8001340FB607A68A023DB059A4213D07B68DB
:10490800504A93420DD07B684F4A934207D07B6848
:104918004E4A934201D1032306E0052304E0022313
:1049280002E0012300E000237A6903210A40D20053
:104938009340FA689A4236D1414A8023D3583A695B
:10494800D2433F49134080228B503D4A8423D35899
:104958003A69D2433A49134084228B50384B5A68FB
:104968003B69D943364B0A405A60354B1A683B6954
:10497800D943334B0A401A607B6903221340DB009A
:104988000F229A401300FB602D4A7B699B0818335D
:104998009B009A58FB68D94329487B699B080A40C1
:1049A80018339B001A507B681A687B695B000321E7
:1049B80099400B001A437B681A607B69DA087B68A8
:1049C80008329200D3587A6907210A4092000F21D1
:1049D80091400A00D1437A69D20819407B680832AD
:1049E8009200D1507B689B687A69520003219140FC
:1049F8000A00D2431A407B689A607B685B68012191
:104A08007A6991400A00D2431A407B685A607B68F1
:104A1800DB687A695200032191400A00D2431A40A8
:104A28007B68DA607B6901337B613A687B69DA40CD
:104A3800131E00D044E7C046C046BD4606B080BD40
:104A4800001802400004005000080050000C0050FC
:104A580080B584B000AF78600A00BB1C1A807B6800
:104A68001B69BA1C1288134004D00F23FB180122BB
:104A78001A7003E00F23FB1800221A700F23FB188B
:104A88001B781800BD4604B080BD80B582B000AF69
:104A9800786008001100BB1C021C1A807B1C0A1CD1
:104AA8001A707B1C1B78002B04D0BB1C1A887B68EF
:104AB8009A6103E0BB1C1A887B689A62C046BD46AF
:104AC80002B080BD80B582B000AF78607B68002BF3
:104AD80001D1012382E07B6841229B5CDBB2002B81
:104AE80007D17B684022002199547B681800FEF7A3
:104AF800EDF87B684122242199547B681B681A6869
:104B08007B681B6801218A431A607B685A687B6846
:104B18001B6834490A401A617B681B689A687B687D
:104B28001B6831490A409A607B68DB68012B08D111
:104B38007B689A687B681B68802109020A439A602F
:104B480007E07B689A687B681B68842109020A432E
:104B58009A607B68DB68022B04D17B681B68802223
:104B680012015A607B681B685A687B681B681F497A
:104B78000A435A607B681B68DA687B681B681A49B5
:104B88000A40DA607B681A697B685B691A4311001E
:104B98007B689B691A027B681B680A43DA607B683A
:104BA800D9697B681A6A7B681B680A431A607B6844
:104BB8001B681A687B681B6801210A431A607B68B6
:104BC80000225A647B684122202199547B68002284
:104BD8001A637B6842220021995400231800BD46BD
:104BE80002B080BDFFFFFFF0FF7FFFFF00800002E3
:104BF80080B582B000AF78607B68002B01D10123BB
:104C080022E07B684122242199547B681B681A683A
:104C18007B681B6801218A431A607B681800FEF7CD
:104C2800B7F87B6800225A647B68412200219954B6
:104C38007B6800221A637B684222002199547B68B2
:104C480040220021995400231800BD4602B080BDBF
:104C580090B589B002AFF86008007A6019000A239D
:104C6800FB18021C1A800823FB180A1C1A80FB6810
:104C780041229B5CDBB2202B00D0E7E0FB6840229E
:104C88009B5C012B01D10223E1E0FB68402201215A
:104C98009954FEF749FB03007B6180231902F868E9
:104CA8007B6900931923012200F016FA031E01D034
:104CB8000123CCE0FB68412221219954FB68422260
:104CC80010219954FB6800225A64FB687A685A627A
:104CD800FB680822BA1812885A85FB6800225A63B2
:104CE800FB685B8D9BB2FF2B11D9FB68FF221A85ED
:104CF800FB681B8DDAB280235C040A23FB18198831
:104D0800F868554B0093230000F0A0FB75E0FB68A2
:104D18005B8D9AB2FB681A85FB681B8DDAB280231B
:104D28009C040A23FB181988F8684B4B009323004E
:104D380000F08CFB61E07A69B96AFB68180000F042
:104D48000AFA031E01D0012381E0FB685B6A1A7826
:104D5800FB681B689A62FB685B6A5A1CFB685A62AC
:104D6800FB685B8D9BB2013B9AB2FB685A85FB6876
:104D78001B8D013B9AB2FB681A85FB685B8D9BB261
:104D8800002B3AD0FB681B8D002B36D1BA6AF86825
:104D98007B69009313000022802100F09DF9031E17
:104DA80001D0012353E0FB685B8D9BB2FF2B11D927
:104DB800FB68FF221A85FB681B8DDAB280235C042E
:104DC8000A23FB181988F86800230093230000F0D1
:104DD8003DFB12E0FB685B8D9AB2FB681A85FB68A5
:104DE8001B8DDAB280239C040A23FB181988F86803
:104DF80000230093230000F029FBFB685B8D9BB226
:104E0800002B98D17A69B96AFB68180000F0E2F9BA
:104E1800031E01D001231AE0FB681B682022DA6117
:104E2800FB681B685A68FB681B680C490A405A6093
:104E3800FB68412220219954FB68422200219954A1
:104E4800FB68402200219954002300E00223180047
:104E5800BD4607B090BDC0460020008000E800FEB7
:104E680080B58AB002AFF8607A603B600A23FB180D
:104E78000A1C1A8000237B61FB6841229B5CDBB221
:104E8800202B00D0FEE0FB681B689A6980231B0278
:104E98001A4080231B029A4201D10223F3E0FB68E7
:104EA80040229B5C012B01D10223ECE0FB684022ED
:104EB80001219954FB68412224219954FB6800225E
:104EC8005A64FB68DB68012B07D10A23FB181B888F
:104ED8009B059B0D6E4A1A4307E00A23FB181B88A3
:104EE8009B059B0DA02292011A43FB681B685A6020
:104EF800FEF71AFA0300BB61FB681B689B69202256
:104F08001340203B5A425341DAB21F23FB181A7050
:104F1800FB681B689B6910221340103B5A4253419F
:104F2800DAB21E23FB181A7035E03B6801331AD039
:104F3800FEF7FAF90200BB69D31A3A689A4202D31B
:104F48003B68002B0FD1FB68412220219954FB6854
:104F58005B6C20221A43FB685A64FB6840220021DC
:104F6800995401238FE0FB681B689B69202213403A
:104F7800203B5A425341DAB21F23FB181A70FB68D0
:104F88001B689B6910221340103B5A425341DAB206
:104F98001E23FB181A701F23FB181B78002B04D143
:104FA8001E23FB181B78002BBFD0FB681B689B696E
:104FB80010221340102B1AD03A68F868BB69009386
:104FC80013000022202100F087F8031E01D00123DE
:104FD80059E0FB681B682022DA61FB684122202126
:104FE8009954FB6840220021995400234BE03A6809
:104FF800F868BB69009313000022202100F06CF8C8
:10500800031E01D001233EE0FB681B681022DA6111
:10501800FB681B682022DA617B697A689A4219D199
:10502800FB681B685A68FB681B688021C9010A4332
:105038005A603A68F868BB6900931300002220217F
:1050480000F04AF8031E01D001231CE0FB681B682E
:105058002022DA617B6901337B617B697A689A4235
:1050680000D92EE7FB68412220219954FB685B6C2C
:1050780020221A43FB685A64FB6840220021995495
:10508800012300E002231800BD4608B080BDC046D9
:105098000020000280B582B000AF78607B681B6892
:1050A8009B6902221340022B03D17B681B680022F4
:1050B8009A627B681B689B6901221340012B07D009
:1050C8007B681B689A697B681B6801210A439A619F
:1050D800C046BD4602B080BD80B584B000AFF86060
:1050E800B9603B60FB1D1A7021E03B6801331ED09C
:1050F800FEF71AF90200BB69D31A3A689A4202D33A
:105108003B68002B13D1FB685B6C20221A43FB68B9
:105118005A64FB68412220219954FB6842220021ED
:105128009954FB6840220021995401230FE0FB6841
:105138001B689B69BA681340BA68D31A5A4253412C
:10514800DBB21A00FB1D1B789A42CED00023180050
:10515800BD4604B080BD80B584B000AFF860B960CA
:105168007A602BE07A68B968FB68180000F06EF87E
:10517800031E01D0012329E0BB6801331ED0FEF7CE
:10518800D3F802007B68D31ABA689A4202D3BB6884
:10519800002B13D1FB685B6C20221A43FB685A640E
:1051A800FB68412220219954FB684222002199542E
:1051B800FB68402200219954012307E0FB681B6823
:1051C8009B6902221340022BCCD100231800BD4654
:1051D80004B080BD80B584B000AFF860B9607A6073
:1051E80028E07A68B968FB68180000F02FF8031EF9
:1051F80001D0012326E0FEF797F802007B68D31A56
:10520800BA689A4202D3BB68002B13D1FB685B6C67
:1052180020221A43FB685A64FB68412220219954D2
:10522800FB68422200219954FB68402200219954CE
:10523800012307E0FB681B689B6920221340202B91
:10524800CFD100231800BD4604B080BD90B58BB007
:1052580000AFF860B9607A602723FB1800221A7043
:10526800FB681B689B69BB6100233B627B68FB6131
:10527800BB691022134000D182E0FB681B68102232
:10528800DA6160E027243B193A1912781A70BB6872
:10529800013358D0FEF748F80200FB69D31ABA6800
:1052A8009A4206D33B193A1912781A70BB68002B38
:1052B80049D1FB681B685A688023DB0113407B6176
:1052C80013203B18FA684221525C1A70FB681B686D
:1052D8009A6980231B021A4080231B029A4226D116
:1052E8007A698023DB019A4221D03B181B78202B56
:1052F8001DD0FB681B685A68FB681B688021C901C0
:105308000A435A60FEF710F80300FB610FE0FEF74E
:105318000BF80200FB69D31A192B08D93B6A202223
:1053280013433B622723FB1801221A700BE0FB682A
:105338001B689B692022134027217A18791809785D
:105348001170202BE3D1FB681B689B692022134056
:10535800202B04D02723FB181B78002B92D027235F
:10536800FB181B78002B03D1FB681B682022DA612D
:105378003B6A042213433B622723FB1801221A705D
:10538800FB681B689B69BB61BA6980235B0013409B
:105398000CD03B6A012213433B62FB681B688022E6
:1053A8005200DA612723FB1801221A70BA69802398
:1053B800DB0013400CD03B6A082213433B62FB68B6
:1053C8001B688022D200DA612723FB1801221A7099
:1053D800BA6980239B0013400CD03B6A0222134316
:1053E8003B62FB681B6880229200DA612723FB1866
:1053F80001221A702723FB181B78002B1DD0FB688D
:105408001800FFF747FEFB681B685A68FB681B68B3
:105418000D490A405A60FB685A6C3B6A1A43FB689C
:105428005A64FB68412220219954FB6842220021DA
:105438009954FB684022002199542723FB181B78B4
:105448001800BD460BB090BD00E800FE90B587B0CF
:1054580000AFF860080011007B600A243B19021CA9
:105468001A8009203B180A1C1A703B191B889B05D7
:105478009A0D3B181B781904FF231B040B401A4391
:105488007B681A43BB6A13435B005B087B61FB685C
:105498001B685B68BA6A510D8022D2000A4007492E
:1054A8000A43D2431A401100FB681B687A690A4311
:1054B8005A60C046BD4607B090BDC046FF63FF03B3
:1054C80080B582B000AF786039607B6841229B5C10
:1054D800DBB2202B38D17B6840229B5C012B01D1A9
:1054E800022332E07B684022012199547B684122E3
:1054F800242199547B681B681A687B681B68012102
:105508008A431A607B681B681A687B681B681149A4
:105518000A401A607B681B6819687B681B683A68D0
:105528000A431A607B681B681A687B681B6801213C
:105538000A431A607B684122202199547B684022E3
:1055480000219954002300E002231800BD4602B050
:1055580080BDC046FFEFFFFF80B584B000AF786024
:1055680039607B6841229B5CDBB2202B39D17B6898
:1055780040229B5C012B01D1022333E07B6840224F
:10558800012199547B684122242199547B681B6826
:105598001A687B681B6801218A431A607B681B684C
:1055A8001B68FB60FB68114A1340FB603B681B02E9
:1055B800FA681343FB607B681B68FA681A607B68AB
:1055C8001B681A687B681B6801210A431A607B689C
:1055D8004122202199547B684022002199540023BC
:1055E80000E002231800BD4604B080BDFFF0FFFFB5
:1055F80080B584B000AF7860194B1B68194A134016
:105608001900174B7A680A431A607A6880239B004E
:105618009A421FD1144B1A6813005B009B185B0059
:1056280012491800FAF77AFD03000133FB6008E01D
:10563800FB68002B03D0FB68013BFB6001E0032300
:1056480009E0074B5A698023DB001A408023DB00FE
:105658009A42EDD000231800BD4604B080BDC04674
:1056680000700040FFF9FFFF1400002040420F00C7
:1056780080B500AF034B9A68E023DB0113401800A4
:10568800BD4680BD0010024080B582B000AFFDF776
:105698004BFE03007B60354B1A68344B8021490070
:1056A8000A431A6008E0FDF73FFE02007B68D31A40
:1056B800022B01D9032354E02C4B1A688023DB000A
:1056C8001340F0D0294B8022D2015A60FDF72CFEFE
:1056D80003007B60254B00229A6009E0FDF724FE59
:1056E80002007B68D31A224A934201D9032338E087
:1056F8001E4B9B6838221340F0D11C4B802252006D
:105708001A601A4B802252001A60FDF70DFE030042
:105718007B6008E0FDF708FE02007B68D31A022BC5
:1057280001D903231DE0114B1A6880239B04134001
:10573800F0D10E4B80225201DA600C4B00229A61A4
:105748000A4B012252421A620A4B0B4A1A600B4B4F
:105758001B681800FDF78CFD031E01D0012300E033
:1057680000231800BD4602B080BDC04600100240AC
:1057780088130000140000200024F4001800002002
:1057880080B588B000AF78607B68002B01D1012319
:10579800F3E27B681B680122134000D17CE0C34B15
:1057A8009B6838221340BB61C04BDB68032213405F
:1057B8007B61BB69102B02D17B69032B02D0BB69CB
:1057C800082B0BD1B94B1A6880239B02134062D077
:1057D8007B685B68002B5ED10123CEE27B685A6848
:1057E80080235B029A4207D1B04B1A68AF4B8021E5
:1057F80049020A431A6020E07B685A68A023DB024A
:105808009A420ED1A94B1A68A84B8021C9020A43B3
:105818001A60A64B1A68A54B802149020A431A60F0
:105828000BE0A24B1A68A14BA1490A401A609F4B92
:105838001A689E4B9F490A401A607B685B68002B78
:1058480014D0FDF771FD03003B6108E0FDF76CFD26
:1058580002003B69D31A642B01D903238DE2934BD1
:105868001A6880239B021340F0D015E0FDF75CFD19
:1058780003003B6108E0FDF757FD02003B69D31ABE
:10588800642B01D9032378E2884B1A6880239B0292
:105898001340F0D100E0C0467B681B680222134029
:1058A80000D199E0814B9B6838221340BB617F4B44
:1058B800DB68032213407B61BB69102B02D17B6933
:1058C800022B02D0BB69002B35D1784B1A68802394
:1058D800DB00134005D07B68DB68002B01D1012376
:1058E8004BE2724B5B68744A134019007B685B6932
:1058F8001A026E4B0A435A60BB69002B12D16B4BDC
:105908001B686E4A134019007B681A69674B0A4383
:105918001A60664B1B68DB0A07221340684ADA40A4
:10592800684B1A60684B1B681800FDF7A1FC031E42
:1059380051D0012321E27B68DB68002B30D05B4B20
:105948001B685E4A134019007B681A69574B0A4363
:105958001A60564B1A68554B802149000A431A6051
:10596800FDF7E2FC03003B6108E0FDF7DDFC020007
:105978003B69D31A022B01D90323FEE14B4B1A686A
:105988008023DB001340F0D0484B5B684A4A134041
:1059980019007B685B691A02444B0A435A601BE092
:1059A800424B1A68414B49490A401A60FDF7BCFC52
:1059B80003003B6108E0FDF7B7FC02003B69D31A1E
:1059C800022B01D90323D8E1384B1A688023DB0066
:1059D8001340F0D100E0C0467B681B6808221340E2
:1059E80047D0324B9B6838221340182B0AD12F4BD3
:1059F8001B6E022213403CD07B689B69002B38D178
:105A08000123BAE17B689B69002B19D0274B1A6EDA
:105A1800264B01210A431A66FDF786FC03003B6109
:105A280008E0FDF781FC02003B69D31A022B01D97B
:105A38000323A2E11D4B1B6E02221340F1D018E094
:105A48001A4B1A6E194B01218A431A66FDF76CFC32
:105A580003003B6108E0FDF767FC02003B69D31ACD
:105A6800022B01D9032388E1104B1B6E022213403D
:105A7800F1D17B681B680422134000D1C6E01F23C4
:105A8800FB1800221A70094B9B6838221340202B00
:105A98001ED1064BDB6D0222134000D1B6E07B68B5
:105AA8009B68002B00D0B1E0012366E100100240A2
:105AB800FFFFFEFFFFFFFBFFFF80FFFFFFC7FFFFAA
:105AC8000024F4001400002018000020FFFEFFFF4F
